{
  "_format": "hh-sol-artifact-1",
  "contractName": "ProtocolUpgradeHandler",
  "sourceName": "contracts/zk-gov/l1-contracts/src/ProtocolUpgradeHandler.sol",
  "abi": [
    {
      "inputs": [
        {
          "internalType": "address",
          "name": "_securityCouncil",
          "type": "address"
        },
        {
          "internalType": "address",
          "name": "_guardians",
          "type": "address"
        },
        {
          "internalType": "address",
          "name": "_emergencyUpgradeBoard",
          "type": "address"
        },
        {
          "internalType": "address",
          "name": "_l2ProtocolGovernor",
          "type": "address"
        },
        {
          "internalType": "contract IZKsyncEra",
          "name": "_ZKsyncEra",
          "type": "address"
        },
        {
          "internalType": "contract IStateTransitionManager",
          "name": "_stateTransitionManager",
          "type": "address"
        },
        {
          "internalType": "contract IPausable",
          "name": "_bridgeHub",
          "type": "address"
        },
        {
          "internalType": "contract IPausable",
          "name": "_sharedBridge",
          "type": "address"
        }
      ],
      "stateMutability": "nonpayable",
      "type": "constructor"
    },
    {
      "anonymous": false,
      "inputs": [
        {
          "indexed": true,
          "internalType": "address",
          "name": "_emergencyUpgradeBoardBefore",
          "type": "address"
        },
        {
          "indexed": true,
          "internalType": "address",
          "name": "_emergencyUpgradeBoardAfter",
          "type": "address"
        }
      ],
      "name": "ChangeEmergencyUpgradeBoard",
      "type": "event"
    },
    {
      "anonymous": false,
      "inputs": [
        {
          "indexed": true,
          "internalType": "address",
          "name": "_guardiansBefore",
          "type": "address"
        },
        {
          "indexed": true,
          "internalType": "address",
          "name": "_guardiansAfter",
          "type": "address"
        }
      ],
      "name": "ChangeGuardians",
      "type": "event"
    },
    {
      "anonymous": false,
      "inputs": [
        {
          "indexed": true,
          "internalType": "address",
          "name": "_securityCouncilBefore",
          "type": "address"
        },
        {
          "indexed": true,
          "internalType": "address",
          "name": "_securityCouncilAfter",
          "type": "address"
        }
      ],
      "name": "ChangeSecurityCouncil",
      "type": "event"
    },
    {
      "anonymous": false,
      "inputs": [
        {
          "indexed": true,
          "internalType": "bytes32",
          "name": "_id",
          "type": "bytes32"
        }
      ],
      "name": "EmergencyUpgradeExecuted",
      "type": "event"
    },
    {
      "anonymous": false,
      "inputs": [
        {
          "indexed": false,
          "internalType": "uint256",
          "name": "_protocolFrozenUntil",
          "type": "uint256"
        }
      ],
      "name": "HardFreeze",
      "type": "event"
    },
    {
      "anonymous": false,
      "inputs": [],
      "name": "ReinforceFreeze",
      "type": "event"
    },
    {
      "anonymous": false,
      "inputs": [
        {
          "indexed": false,
          "internalType": "uint256",
          "name": "_chainId",
          "type": "uint256"
        }
      ],
      "name": "ReinforceFreezeOneChain",
      "type": "event"
    },
    {
      "anonymous": false,
      "inputs": [],
      "name": "ReinforceUnfreeze",
      "type": "event"
    },
    {
      "anonymous": false,
      "inputs": [
        {
          "indexed": false,
          "internalType": "uint256",
          "name": "_chainId",
          "type": "uint256"
        }
      ],
      "name": "ReinforceUnfreezeOneChain",
      "type": "event"
    },
    {
      "anonymous": false,
      "inputs": [
        {
          "indexed": false,
          "internalType": "uint256",
          "name": "_protocolFrozenUntil",
          "type": "uint256"
        }
      ],
      "name": "SoftFreeze",
      "type": "event"
    },
    {
      "anonymous": false,
      "inputs": [],
      "name": "Unfreeze",
      "type": "event"
    },
    {
      "anonymous": false,
      "inputs": [
        {
          "indexed": true,
          "internalType": "bytes32",
          "name": "_id",
          "type": "bytes32"
        }
      ],
      "name": "UpgradeApprovedByGuardians",
      "type": "event"
    },
    {
      "anonymous": false,
      "inputs": [
        {
          "indexed": true,
          "internalType": "bytes32",
          "name": "_id",
          "type": "bytes32"
        }
      ],
      "name": "UpgradeApprovedBySecurityCouncil",
      "type": "event"
    },
    {
      "anonymous": false,
      "inputs": [
        {
          "indexed": true,
          "internalType": "bytes32",
          "name": "_id",
          "type": "bytes32"
        }
      ],
      "name": "UpgradeExecuted",
      "type": "event"
    },
    {
      "anonymous": false,
      "inputs": [
        {
          "indexed": true,
          "internalType": "bytes32",
          "name": "_id",
          "type": "bytes32"
        }
      ],
      "name": "UpgradeLegalVetoExtended",
      "type": "event"
    },
    {
      "anonymous": false,
      "inputs": [
        {
          "indexed": true,
          "internalType": "bytes32",
          "name": "_id",
          "type": "bytes32"
        },
        {
          "components": [
            {
              "components": [
                {
                  "internalType": "address",
                  "name": "target",
                  "type": "address"
                },
                {
                  "internalType": "uint256",
                  "name": "value",
                  "type": "uint256"
                },
                {
                  "internalType": "bytes",
                  "name": "data",
                  "type": "bytes"
                }
              ],
              "internalType": "struct IProtocolUpgradeHandler.Call[]",
              "name": "calls",
              "type": "tuple[]"
            },
            {
              "internalType": "address",
              "name": "executor",
              "type": "address"
            },
            {
              "internalType": "bytes32",
              "name": "salt",
              "type": "bytes32"
            }
          ],
          "indexed": false,
          "internalType": "struct IProtocolUpgradeHandler.UpgradeProposal",
          "name": "_proposal",
          "type": "tuple"
        }
      ],
      "name": "UpgradeStarted",
      "type": "event"
    },
    {
      "inputs": [],
      "name": "BRIDGE_HUB",
      "outputs": [
        {
          "internalType": "contract IPausable",
          "name": "",
          "type": "address"
        }
      ],
      "stateMutability": "view",
      "type": "function"
    },
    {
      "inputs": [],
      "name": "L2_PROTOCOL_GOVERNOR",
      "outputs": [
        {
          "internalType": "address",
          "name": "",
          "type": "address"
        }
      ],
      "stateMutability": "view",
      "type": "function"
    },
    {
      "inputs": [],
      "name": "SHARED_BRIDGE",
      "outputs": [
        {
          "internalType": "contract IPausable",
          "name": "",
          "type": "address"
        }
      ],
      "stateMutability": "view",
      "type": "function"
    },
    {
      "inputs": [],
      "name": "STATE_TRANSITION_MANAGER",
      "outputs": [
        {
          "internalType": "contract IStateTransitionManager",
          "name": "",
          "type": "address"
        }
      ],
      "stateMutability": "view",
      "type": "function"
    },
    {
      "inputs": [],
      "name": "ZKSYNC_ERA",
      "outputs": [
        {
          "internalType": "contract IZKsyncEra",
          "name": "",
          "type": "address"
        }
      ],
      "stateMutability": "view",
      "type": "function"
    },
    {
      "inputs": [
        {
          "internalType": "bytes32",
          "name": "_id",
          "type": "bytes32"
        }
      ],
      "name": "approveUpgradeGuardians",
      "outputs": [],
      "stateMutability": "nonpayable",
      "type": "function"
    },
    {
      "inputs": [
        {
          "internalType": "bytes32",
          "name": "_id",
          "type": "bytes32"
        }
      ],
      "name": "approveUpgradeSecurityCouncil",
      "outputs": [],
      "stateMutability": "nonpayable",
      "type": "function"
    },
    {
      "inputs": [],
      "name": "emergencyUpgradeBoard",
      "outputs": [
        {
          "internalType": "address",
          "name": "",
          "type": "address"
        }
      ],
      "stateMutability": "view",
      "type": "function"
    },
    {
      "inputs": [
        {
          "components": [
            {
              "components": [
                {
                  "internalType": "address",
                  "name": "target",
                  "type": "address"
                },
                {
                  "internalType": "uint256",
                  "name": "value",
                  "type": "uint256"
                },
                {
                  "internalType": "bytes",
                  "name": "data",
                  "type": "bytes"
                }
              ],
              "internalType": "struct IProtocolUpgradeHandler.Call[]",
              "name": "calls",
              "type": "tuple[]"
            },
            {
              "internalType": "address",
              "name": "executor",
              "type": "address"
            },
            {
              "internalType": "bytes32",
              "name": "salt",
              "type": "bytes32"
            }
          ],
          "internalType": "struct IProtocolUpgradeHandler.UpgradeProposal",
          "name": "_proposal",
          "type": "tuple"
        }
      ],
      "name": "execute",
      "outputs": [],
      "stateMutability": "payable",
      "type": "function"
    },
    {
      "inputs": [
        {
          "components": [
            {
              "components": [
                {
                  "internalType": "address",
                  "name": "target",
                  "type": "address"
                },
                {
                  "internalType": "uint256",
                  "name": "value",
                  "type": "uint256"
                },
                {
                  "internalType": "bytes",
                  "name": "data",
                  "type": "bytes"
                }
              ],
              "internalType": "struct IProtocolUpgradeHandler.Call[]",
              "name": "calls",
              "type": "tuple[]"
            },
            {
              "internalType": "address",
              "name": "executor",
              "type": "address"
            },
            {
              "internalType": "bytes32",
              "name": "salt",
              "type": "bytes32"
            }
          ],
          "internalType": "struct IProtocolUpgradeHandler.UpgradeProposal",
          "name": "_proposal",
          "type": "tuple"
        }
      ],
      "name": "executeEmergencyUpgrade",
      "outputs": [],
      "stateMutability": "payable",
      "type": "function"
    },
    {
      "inputs": [
        {
          "internalType": "bytes32",
          "name": "_id",
          "type": "bytes32"
        }
      ],
      "name": "extendLegalVeto",
      "outputs": [],
      "stateMutability": "nonpayable",
      "type": "function"
    },
    {
      "inputs": [],
      "name": "guardians",
      "outputs": [
        {
          "internalType": "address",
          "name": "",
          "type": "address"
        }
      ],
      "stateMutability": "view",
      "type": "function"
    },
    {
      "inputs": [],
      "name": "hardFreeze",
      "outputs": [],
      "stateMutability": "nonpayable",
      "type": "function"
    },
    {
      "inputs": [],
      "name": "lastFreezeStatusInUpgradeCycle",
      "outputs": [
        {
          "internalType": "enum IProtocolUpgradeHandler.FreezeStatus",
          "name": "",
          "type": "uint8"
        }
      ],
      "stateMutability": "view",
      "type": "function"
    },
    {
      "inputs": [],
      "name": "protocolFrozenUntil",
      "outputs": [
        {
          "internalType": "uint256",
          "name": "",
          "type": "uint256"
        }
      ],
      "stateMutability": "view",
      "type": "function"
    },
    {
      "inputs": [],
      "name": "reinforceFreeze",
      "outputs": [],
      "stateMutability": "nonpayable",
      "type": "function"
    },
    {
      "inputs": [
        {
          "internalType": "uint256",
          "name": "_chainId",
          "type": "uint256"
        }
      ],
      "name": "reinforceFreezeOneChain",
      "outputs": [],
      "stateMutability": "nonpayable",
      "type": "function"
    },
    {
      "inputs": [],
      "name": "reinforceUnfreeze",
      "outputs": [],
      "stateMutability": "nonpayable",
      "type": "function"
    },
    {
      "inputs": [
        {
          "internalType": "uint256",
          "name": "_chainId",
          "type": "uint256"
        }
      ],
      "name": "reinforceUnfreezeOneChain",
      "outputs": [],
      "stateMutability": "nonpayable",
      "type": "function"
    },
    {
      "inputs": [],
      "name": "securityCouncil",
      "outputs": [
        {
          "internalType": "address",
          "name": "",
          "type": "address"
        }
      ],
      "stateMutability": "view",
      "type": "function"
    },
    {
      "inputs": [],
      "name": "softFreeze",
      "outputs": [],
      "stateMutability": "nonpayable",
      "type": "function"
    },
    {
      "inputs": [
        {
          "internalType": "uint256",
          "name": "_l2BatchNumber",
          "type": "uint256"
        },
        {
          "internalType": "uint256",
          "name": "_l2MessageIndex",
          "type": "uint256"
        },
        {
          "internalType": "uint16",
          "name": "_l2TxNumberInBatch",
          "type": "uint16"
        },
        {
          "internalType": "bytes32[]",
          "name": "_proof",
          "type": "bytes32[]"
        },
        {
          "components": [
            {
              "components": [
                {
                  "internalType": "address",
                  "name": "target",
                  "type": "address"
                },
                {
                  "internalType": "uint256",
                  "name": "value",
                  "type": "uint256"
                },
                {
                  "internalType": "bytes",
                  "name": "data",
                  "type": "bytes"
                }
              ],
              "internalType": "struct IProtocolUpgradeHandler.Call[]",
              "name": "calls",
              "type": "tuple[]"
            },
            {
              "internalType": "address",
              "name": "executor",
              "type": "address"
            },
            {
              "internalType": "bytes32",
              "name": "salt",
              "type": "bytes32"
            }
          ],
          "internalType": "struct IProtocolUpgradeHandler.UpgradeProposal",
          "name": "_proposal",
          "type": "tuple"
        }
      ],
      "name": "startUpgrade",
      "outputs": [],
      "stateMutability": "nonpayable",
      "type": "function"
    },
    {
      "inputs": [],
      "name": "unfreeze",
      "outputs": [],
      "stateMutability": "nonpayable",
      "type": "function"
    },
    {
      "inputs": [
        {
          "internalType": "address",
          "name": "_newEmergencyUpgradeBoard",
          "type": "address"
        }
      ],
      "name": "updateEmergencyUpgradeBoard",
      "outputs": [],
      "stateMutability": "nonpayable",
      "type": "function"
    },
    {
      "inputs": [
        {
          "internalType": "address",
          "name": "_newGuardians",
          "type": "address"
        }
      ],
      "name": "updateGuardians",
      "outputs": [],
      "stateMutability": "nonpayable",
      "type": "function"
    },
    {
      "inputs": [
        {
          "internalType": "address",
          "name": "_newSecurityCouncil",
          "type": "address"
        }
      ],
      "name": "updateSecurityCouncil",
      "outputs": [],
      "stateMutability": "nonpayable",
      "type": "function"
    },
    {
      "inputs": [
        {
          "internalType": "bytes32",
          "name": "_id",
          "type": "bytes32"
        }
      ],
      "name": "upgradeState",
      "outputs": [
        {
          "internalType": "enum IProtocolUpgradeHandler.UpgradeState",
          "name": "",
          "type": "uint8"
        }
      ],
      "stateMutability": "view",
      "type": "function"
    },
    {
      "inputs": [
        {
          "internalType": "bytes32",
          "name": "upgradeId",
          "type": "bytes32"
        }
      ],
      "name": "upgradeStatus",
      "outputs": [
        {
          "internalType": "uint48",
          "name": "creationTimestamp",
          "type": "uint48"
        },
        {
          "internalType": "uint48",
          "name": "securityCouncilApprovalTimestamp",
          "type": "uint48"
        },
        {
          "internalType": "bool",
          "name": "guardiansApproval",
          "type": "bool"
        },
        {
          "internalType": "bool",
          "name": "guardiansExtendedLegalVeto",
          "type": "bool"
        },
        {
          "internalType": "bool",
          "name": "executed",
          "type": "bool"
        }
      ],
      "stateMutability": "view",
      "type": "function"
    },
    {
      "stateMutability": "payable",
      "type": "receive"
    }
  ],
  "bytecode": "0x6101206040523480156200001257600080fd5b5060405162004aeb38038062004aeb833981810160405281019062000038919062000488565b62093a806200004c6200034460201b60201c565b11156200005e576200005d62000551565b5b876000806101000a81548173ffffffffffffffffffffffffffffffffffffffff021916908373ffffffffffffffffffffffffffffffffffffffff1602179055508773ffffffffffffffffffffffffffffffffffffffff16600073ffffffffffffffffffffffffffffffffffffffff167fe55ac8ae7914efca1278b8ed4ae21728d06ad9f6e7637bb2c905aacf2a6f595160405160405180910390a386600160006101000a81548173ffffffffffffffffffffffffffffffffffffffff021916908373ffffffffffffffffffffffffffffffffffffffff1602179055508673ffffffffffffffffffffffffffffffffffffffff16600073ffffffffffffffffffffffffffffffffffffffff167ffbb8d9e9607c95042daed3ce66316805e80c575253e2b5a83eb10cb97ac23d8860405160405180910390a385600260006101000a81548173ffffffffffffffffffffffffffffffffffffffff021916908373ffffffffffffffffffffffffffffffffffffffff1602179055508573ffffffffffffffffffffffffffffffffffffffff16600073ffffffffffffffffffffffffffffffffffffffff167f892b24306024c8b484d205b00cd0b9b7ff3f38781a6ed6686c60ef2c59d7667060405160405180910390a38473ffffffffffffffffffffffffffffffffffffffff1660808173ffffffffffffffffffffffffffffffffffffffff16815250508373ffffffffffffffffffffffffffffffffffffffff1660a08173ffffffffffffffffffffffffffffffffffffffff16815250508273ffffffffffffffffffffffffffffffffffffffff1660c08173ffffffffffffffffffffffffffffffffffffffff16815250508173ffffffffffffffffffffffffffffffffffffffff1660e08173ffffffffffffffffffffffffffffffffffffffff16815250508073ffffffffffffffffffffffffffffffffffffffff166101008173ffffffffffffffffffffffffffffffffffffffff1681525050505050505050505062000580565b60006203f480905090565b600080fd5b600073ffffffffffffffffffffffffffffffffffffffff82169050919050565b6000620003818262000354565b9050919050565b620003938162000374565b81146200039f57600080fd5b50565b600081519050620003b38162000388565b92915050565b6000620003c68262000374565b9050919050565b620003d881620003b9565b8114620003e457600080fd5b50565b600081519050620003f881620003cd565b92915050565b60006200040b8262000374565b9050919050565b6200041d81620003fe565b81146200042957600080fd5b50565b6000815190506200043d8162000412565b92915050565b6000620004508262000374565b9050919050565b620004628162000443565b81146200046e57600080fd5b50565b600081519050620004828162000457565b92915050565b600080600080600080600080610100898b031215620004ac57620004ab6200034f565b5b6000620004bc8b828c01620003a2565b9850506020620004cf8b828c01620003a2565b9750506040620004e28b828c01620003a2565b9650506060620004f58b828c01620003a2565b9550506080620005088b828c01620003e7565b94505060a06200051b8b828c016200042c565b93505060c06200052e8b828c0162000471565b92505060e0620005418b828c0162000471565b9150509295985092959890939650565b7f4e487b7100000000000000000000000000000000000000000000000000000000600052600160045260246000fd5b60805160a05160c05160e051610100516144d26200061960003960008181610cd20152818161248601526126d2015260008181610d1c0152818161240c01526126580152600081816106560152818161076b0152818161095a015281816122ba015281816123610152818161250601526125ad0152600081816115c60152612294015260008181610cae015261158201526144d26000f3fe6080604052600436106101bb5760003560e01c806374f5d9d2116100ec578063c54dd6281161008a578063dbfe3e9611610064578063dbfe3e9614610555578063ea3e739b1461057e578063ec1507cb146105a7578063f12913d8146105e4576101c2565b8063c54dd628146104fc578063d370613214610513578063d6f7e8da1461053e576101c2565b80639c5392da116100c65780639c5392da1461044d578063a1dcb9b814610476578063b429f41c14610492578063b9d1f21a146104bb576101c2565b806374f5d9d2146103e45780637aedf3371461040d57806384a20db814610436576101c2565b80634523da36116101595780635a81d4ba116101335780635a81d4ba1461034e5780635d4edca714610379578063691616c5146103a45780636a28f000146103cd576101c2565b80634523da36146102dc5780634717bd36146102f8578063546b6d2a14610323576101c2565b806327eb6c0f1161019557806327eb6c0f146102465780633083f0c814610271578063314e6ebe1461029c578063407626b5146102b3576101c2565b80630855b2e1146101c757806308ee01eb146101f05780630ed505a21461021b576101c2565b366101c257005b600080fd5b3480156101d357600080fd5b506101ee60048036038101906101e991906129a1565b61060f565b005b3480156101fc57600080fd5b50610205610719565b6040516102129190612a0f565b60405180910390f35b34801561022757600080fd5b5061023061073f565b60405161023d9190612a39565b60405180910390f35b34801561025257600080fd5b5061025b610745565b6040516102689190612a0f565b60405180910390f35b34801561027d57600080fd5b50610286610769565b6040516102939190612ab3565b60405180910390f35b3480156102a857600080fd5b506102b161078d565b005b3480156102bf57600080fd5b506102da60048036038101906102d591906129a1565b610913565b005b6102f660048036038101906102f19190612af2565b610a1d565b005b34801561030457600080fd5b5061030d610cac565b60405161031a9190612a0f565b60405180910390f35b34801561032f57600080fd5b50610338610cd0565b6040516103459190612b5c565b60405180910390f35b34801561035a57600080fd5b50610363610cf4565b6040516103709190612a0f565b60405180910390f35b34801561038557600080fd5b5061038e610d1a565b60405161039b9190612b5c565b60405180910390f35b3480156103b057600080fd5b506103cb60048036038101906103c69190612ba3565b610d3e565b005b3480156103d957600080fd5b506103e2610e6c565b005b3480156103f057600080fd5b5061040b60048036038101906104069190612c06565b611064565b005b34801561041957600080fd5b50610434600480360381019061042f9190612ba3565b61122c565b005b34801561044257600080fd5b5061044b61135a565b005b34801561045957600080fd5b50610474600480360381019061046f9190612cd2565b611545565b005b610490600480360381019061048b9190612af2565b611848565b005b34801561049e57600080fd5b506104b960048036038101906104b49190612c06565b611a90565b005b3480156104c757600080fd5b506104e260048036038101906104dd9190612c06565b611c58565b6040516104f3959493929190612dc4565b60405180910390f35b34801561050857600080fd5b50610511611cd9565b005b34801561051f57600080fd5b50610528611d54565b6040516105359190612e8e565b60405180910390f35b34801561054a57600080fd5b50610553611d67565b005b34801561056157600080fd5b5061057c60048036038101906105779190612ba3565b611de2565b005b34801561058a57600080fd5b506105a560048036038101906105a09190612c06565b611f0d565b005b3480156105b357600080fd5b506105ce60048036038101906105c99190612c06565b612079565b6040516105db9190612ef1565b60405180910390f35b3480156105f057600080fd5b506105f9612292565b6040516106069190612f2d565b60405180910390f35b600554421115610654576040517f08c379a000000000000000000000000000000000000000000000000000000000815260040161064b90612fcb565b60405180910390fd5b7f000000000000000000000000000000000000000000000000000000000000000073ffffffffffffffffffffffffffffffffffffffff1663accdd16c826040518263ffffffff1660e01b81526004016106ad9190612a39565b600060405180830381600087803b1580156106c757600080fd5b505af11580156106db573d6000803e3d6000fd5b505050507fe2b6c70f0bb14be8c1be3a3875d171dd198b1f9f2d35972501b91c0fc6c1b0ce8160405161070e9190612a39565b60405180910390a150565b600260009054906101000a900473ffffffffffffffffffffffffffffffffffffffff1681565b60055481565b60008054906101000a900473ffffffffffffffffffffffffffffffffffffffff1681565b7f000000000000000000000000000000000000000000000000000000000000000081565b60008054906101000a900473ffffffffffffffffffffffffffffffffffffffff1673ffffffffffffffffffffffffffffffffffffffff163373ffffffffffffffffffffffffffffffffffffffff161461081b576040517f08c379a00000000000000000000000000000000000000000000000000000000081526004016108129061305d565b60405180910390fd5b6000600481111561082f5761082e612e17565b5b600460009054906101000a900460ff16600481111561085157610850612e17565b5b14610891576040517f08c379a0000000000000000000000000000000000000000000000000000000008152600401610888906130c9565b60405180910390fd5b6001600460006101000a81548160ff021916908360048111156108b7576108b6612e17565b5b021790555061a8c0426108ca9190613118565b6005819055506108d86122b6565b7f24f7761883b592e1cb80bcb0b5ad54822c7ed844019f3459111f131715d1ecc96005546040516109099190612a39565b60405180910390a1565b600060055414610958576040517f08c379a000000000000000000000000000000000000000000000000000000000815260040161094f906131be565b60405180910390fd5b7f000000000000000000000000000000000000000000000000000000000000000073ffffffffffffffffffffffffffffffffffffffff166351d218f7826040518263ffffffff1660e01b81526004016109b19190612a39565b600060405180830381600087803b1580156109cb57600080fd5b505af11580156109df573d6000803e3d6000fd5b505050507fa938747b1cf8e014275de2758fc8d441002154a94bca459b291cbbbeb0c7c89d81604051610a129190612a39565b60405180910390a150565b600260009054906101000a900473ffffffffffffffffffffffffffffffffffffffff1673ffffffffffffffffffffffffffffffffffffffff163373ffffffffffffffffffffffffffffffffffffffff1614610aad576040517f08c379a0000000000000000000000000000000000000000000000000000000008152600401610aa490613250565b60405180910390fd5b600081604051602001610ac091906135c1565b6040516020818303038152906040528051906020012090506000610ae382612079565b905060006006811115610af957610af8612e17565b5b816006811115610b0c57610b0b612e17565b5b14610b4c576040517f08c379a0000000000000000000000000000000000000000000000000000000008152600401610b439061362f565b60405180910390fd5b3373ffffffffffffffffffffffffffffffffffffffff16836020016020810190610b769190612ba3565b73ffffffffffffffffffffffffffffffffffffffff1614610bcc576040517f08c379a0000000000000000000000000000000000000000000000000000000008152600401610bc3906136c1565b60405180910390fd5b600160036000848152602001908152602001600020600001600e6101000a81548160ff0219169083151502179055506000600460006101000a81548160ff02191690836004811115610c2157610c20612e17565b5b02179055506000600581905550610c36612502565b610c4e838060000190610c4991906136f0565b61274e565b7f2f05ba71d0df11bf5fa562a6569d70c4f80da84284badbe015ce1456063d0ded60405160405180910390a1817f39f6aeadc0239b46b37917ee1c12e98f9cd3a5dea6c038efa22af67471128e5160405160405180910390a2505050565b7f000000000000000000000000000000000000000000000000000000000000000081565b7f000000000000000000000000000000000000000000000000000000000000000081565b600160009054906101000a900473ffffffffffffffffffffffffffffffffffffffff1681565b7f000000000000000000000000000000000000000000000000000000000000000081565b3073ffffffffffffffffffffffffffffffffffffffff163373ffffffffffffffffffffffffffffffffffffffff1614610dac576040517f08c379a0000000000000000000000000000000000000000000000000000000008152600401610da3906137eb565b60405180910390fd5b8073ffffffffffffffffffffffffffffffffffffffff16600160009054906101000a900473ffffffffffffffffffffffffffffffffffffffff1673ffffffffffffffffffffffffffffffffffffffff167ffbb8d9e9607c95042daed3ce66316805e80c575253e2b5a83eb10cb97ac23d8860405160405180910390a380600160006101000a81548173ffffffffffffffffffffffffffffffffffffffff021916908373ffffffffffffffffffffffffffffffffffffffff16021790555050565b60008054906101000a900473ffffffffffffffffffffffffffffffffffffffff1673ffffffffffffffffffffffffffffffffffffffff163373ffffffffffffffffffffffffffffffffffffffff161480610ed65750600060055414158015610ed5575060055442115b5b610f15576040517f08c379a0000000000000000000000000000000000000000000000000000000008152600401610f0c906138a3565b60405180910390fd5b60016004811115610f2957610f28612e17565b5b600460009054906101000a900460ff166004811115610f4b57610f4a612e17565b5b03610f80576003600460006101000a81548160ff02191690836004811115610f7657610f75612e17565b5b0217905550611026565b60026004811115610f9457610f93612e17565b5b600460009054906101000a900460ff166004811115610fb657610fb5612e17565b5b03610fea5760048060006101000a81548160ff02191690836004811115610fe057610fdf612e17565b5b0217905550611025565b6040517f08c379a000000000000000000000000000000000000000000000000000000000815260040161101c9061390f565b60405180910390fd5b5b6000600581905550611036612502565b7f2f05ba71d0df11bf5fa562a6569d70c4f80da84284badbe015ce1456063d0ded60405160405180910390a1565b600160009054906101000a900473ffffffffffffffffffffffffffffffffffffffff1673ffffffffffffffffffffffffffffffffffffffff163373ffffffffffffffffffffffffffffffffffffffff16146110f4576040517f08c379a00000000000000000000000000000000000000000000000000000000081526004016110eb906139a1565b60405180910390fd5b60036000828152602001908152602001600020600001600c9054906101000a900460ff1615611158576040517f08c379a000000000000000000000000000000000000000000000000000000000815260040161114f90613a33565b60405180910390fd5b600061116382612079565b90506002600681111561117957611178612e17565b5b81600681111561118c5761118b612e17565b5b146111cc576040517f08c379a00000000000000000000000000000000000000000000000000000000081526004016111c390613aeb565b60405180910390fd5b600160036000848152602001908152602001600020600001600c6101000a81548160ff021916908315150217905550817f4bdba07411d36daebbfc1a5062f25d0d02c753374c8498aec76d5954c707682a60405160405180910390a25050565b3073ffffffffffffffffffffffffffffffffffffffff163373ffffffffffffffffffffffffffffffffffffffff161461129a576040517f08c379a0000000000000000000000000000000000000000000000000000000008152600401611291906137eb565b60405180910390fd5b8073ffffffffffffffffffffffffffffffffffffffff16600260009054906101000a900473ffffffffffffffffffffffffffffffffffffffff1673ffffffffffffffffffffffffffffffffffffffff167f892b24306024c8b484d205b00cd0b9b7ff3f38781a6ed6686c60ef2c59d7667060405160405180910390a380600260006101000a81548173ffffffffffffffffffffffffffffffffffffffff021916908373ffffffffffffffffffffffffffffffffffffffff16021790555050565b60008054906101000a900473ffffffffffffffffffffffffffffffffffffffff1673ffffffffffffffffffffffffffffffffffffffff163373ffffffffffffffffffffffffffffffffffffffff16146113e8576040517f08c379a00000000000000000000000000000000000000000000000000000000081526004016113df9061305d565b60405180910390fd5b6000600460009054906101000a900460ff169050600060048111156114105761140f612e17565b5b81600481111561142357611422612e17565b5b148061145357506001600481111561143e5761143d612e17565b5b81600481111561145157611450612e17565b5b145b8061148257506003600481111561146d5761146c612e17565b5b8160048111156114805761147f612e17565b5b145b6114c1576040517f08c379a00000000000000000000000000000000000000000000000000000000081526004016114b890613b57565b60405180910390fd5b6002600460006101000a81548160ff021916908360048111156114e7576114e6612e17565b5b021790555062093a80426114fb9190613118565b6005819055506115096122b6565b7f8cfb4dcbe7dce698c042e43e42e1e496194abadb41ac3756f5793a9c5a8bb3e860055460405161153a9190612a39565b60405180910390a150565b60008160405160200161155891906135c1565b6040516020818303038152906040529050600060405180606001604052808761ffff1681526020017f000000000000000000000000000000000000000000000000000000000000000073ffffffffffffffffffffffffffffffffffffffff16815260200183815250905060007f000000000000000000000000000000000000000000000000000000000000000073ffffffffffffffffffffffffffffffffffffffff1663e4948f438a8a858a8a6040518663ffffffff1660e01b8152600401611625959493929190613cbf565b602060405180830381865afa158015611642573d6000803e3d6000fd5b505050506040513d601f19601f820116820180604052508101906116669190613d40565b9050806116a8576040517f08c379a000000000000000000000000000000000000000000000000000000000815260040161169f90613ddf565b60405180910390fd5b600260009054906101000a900473ffffffffffffffffffffffffffffffffffffffff1673ffffffffffffffffffffffffffffffffffffffff168460200160208101906116f49190612ba3565b73ffffffffffffffffffffffffffffffffffffffff160361174a576040517f08c379a000000000000000000000000000000000000000000000000000000000815260040161174190613e71565b60405180910390fd5b600083805190602001209050600061176182612079565b90506000600681111561177757611776612e17565b5b81600681111561178a57611789612e17565b5b146117ca576040517f08c379a00000000000000000000000000000000000000000000000000000000081526004016117c190613f03565b60405180910390fd5b426003600084815260200190815260200160002060000160006101000a81548165ffffffffffff021916908365ffffffffffff160217905550817f71a79729ed8b7db17b27c5dfe0ae24cf41d52b08c8dfc82592fc7db23010c8798760405161183391906135c1565b60405180910390a25050505050505050505050565b60008160405160200161185b91906135c1565b604051602081830303815290604052805190602001209050600061187e82612079565b90506004600681111561189457611893612e17565b5b8160068111156118a7576118a6612e17565b5b146118e7576040517f08c379a00000000000000000000000000000000000000000000000000000000081526004016118de90613f6f565b60405180910390fd5b600073ffffffffffffffffffffffffffffffffffffffff168360200160208101906119129190612ba3565b73ffffffffffffffffffffffffffffffffffffffff16148061197157503373ffffffffffffffffffffffffffffffffffffffff168360200160208101906119599190612ba3565b73ffffffffffffffffffffffffffffffffffffffff16145b6119b0576040517f08c379a00000000000000000000000000000000000000000000000000000000081526004016119a7906136c1565b60405180910390fd5b600160036000848152602001908152602001600020600001600e6101000a81548160ff0219169083151502179055506000600460006101000a81548160ff02191690836004811115611a0557611a04612e17565b5b02179055506000600581905550611a1a612502565b611a32838060000190611a2d91906136f0565b61274e565b7f2f05ba71d0df11bf5fa562a6569d70c4f80da84284badbe015ce1456063d0ded60405160405180910390a1817ff6224a998aea3de231cf75375faf8c3711379d54bb84c92ef9d9779dabd383a960405160405180910390a2505050565b600160009054906101000a900473ffffffffffffffffffffffffffffffffffffffff1673ffffffffffffffffffffffffffffffffffffffff163373ffffffffffffffffffffffffffffffffffffffff1614611b20576040517f08c379a0000000000000000000000000000000000000000000000000000000008152600401611b17906139a1565b60405180910390fd5b60036000828152602001908152602001600020600001600d9054906101000a900460ff1615611b84576040517f08c379a0000000000000000000000000000000000000000000000000000000008152600401611b7b90614001565b60405180910390fd5b6000611b8f82612079565b905060016006811115611ba557611ba4612e17565b5b816006811115611bb857611bb7612e17565b5b14611bf8576040517f08c379a0000000000000000000000000000000000000000000000000000000008152600401611bef90614093565b60405180910390fd5b600160036000848152602001908152602001600020600001600d6101000a81548160ff021916908315150217905550817f6679375a2761fa72f4163ccf9a92a514bfd3adff8eb1f2f17256f25834dc46ca60405160405180910390a25050565b60036020528060005260406000206000915090508060000160009054906101000a900465ffffffffffff16908060000160069054906101000a900465ffffffffffff169080600001600c9054906101000a900460ff169080600001600d9054906101000a900460ff169080600001600e9054906101000a900460ff16905085565b600060055414611d1e576040517f08c379a0000000000000000000000000000000000000000000000000000000008152600401611d15906131be565b60405180910390fd5b611d26612502565b7fea592eda90ea1daf1d7577bddc51f4f8425ec0332f0dd8b58aa08f8a2d1da62160405160405180910390a1565b600460009054906101000a900460ff1681565b600554421115611dac576040517f08c379a0000000000000000000000000000000000000000000000000000000008152600401611da390612fcb565b60405180910390fd5b611db46122b6565b7fbe5088092f32032505342f55f3393029ab55bd4dfcc2edad138d715f485ace6e60405160405180910390a1565b3073ffffffffffffffffffffffffffffffffffffffff163373ffffffffffffffffffffffffffffffffffffffff1614611e50576040517f08c379a0000000000000000000000000000000000000000000000000000000008152600401611e47906137eb565b60405180910390fd5b8073ffffffffffffffffffffffffffffffffffffffff1660008054906101000a900473ffffffffffffffffffffffffffffffffffffffff1673ffffffffffffffffffffffffffffffffffffffff167fe55ac8ae7914efca1278b8ed4ae21728d06ad9f6e7637bb2c905aacf2a6f595160405160405180910390a3806000806101000a81548173ffffffffffffffffffffffffffffffffffffffff021916908373ffffffffffffffffffffffffffffffffffffffff16021790555050565b60008054906101000a900473ffffffffffffffffffffffffffffffffffffffff1673ffffffffffffffffffffffffffffffffffffffff163373ffffffffffffffffffffffffffffffffffffffff1614611f9b576040517f08c379a0000000000000000000000000000000000000000000000000000000008152600401611f929061305d565b60405180910390fd5b6000611fa682612079565b905060026006811115611fbc57611fbb612e17565b5b816006811115611fcf57611fce612e17565b5b1461200f576040517f08c379a00000000000000000000000000000000000000000000000000000000081526004016120069061414b565b60405180910390fd5b426003600084815260200190815260200160002060000160066101000a81548165ffffffffffff021916908365ffffffffffff160217905550817f4ea0d7cd48461eaf68f428942cdfb19039bd43dc723fa8875c65bec57d911ac460405160405180910390a25050565b600080600360008481526020019081526020016000206040518060a00160405290816000820160009054906101000a900465ffffffffffff1665ffffffffffff1665ffffffffffff1681526020016000820160069054906101000a900465ffffffffffff1665ffffffffffff1665ffffffffffff16815260200160008201600c9054906101000a900460ff1615151515815260200160008201600d9054906101000a900460ff1615151515815260200160008201600e9054906101000a900460ff16151515158152505090506000816000015165ffffffffffff160361216357600091505061228d565b80608001511561217757600691505061228d565b6000816060015161218f5761218a61294c565b612194565b62093a805b905080826000015165ffffffffffff166121ae9190613118565b4210156121c05760019250505061228d565b6000826020015165ffffffffffff161461220f57600062015180836020015165ffffffffffff166121f19190613118565b905080421015612202576003612205565b60045b935050505061228d565b600062278d0082846000015165ffffffffffff1661222d9190613118565b6122379190613118565b9050804210612285578260400151612255576005935050505061228d565b600062015180826122669190613118565b90508042101561227757600361227a565b60045b94505050505061228d565b600293505050505b919050565b7f000000000000000000000000000000000000000000000000000000000000000081565b60007f000000000000000000000000000000000000000000000000000000000000000073ffffffffffffffffffffffffffffffffffffffff1663a75b496d6040518163ffffffff1660e01b8152600401600060405180830381865afa158015612323573d6000803e3d6000fd5b505050506040513d6000823e3d601f19601f8201168201806040525081019061234c91906142be565b905060008151905060005b81811015612409577f000000000000000000000000000000000000000000000000000000000000000073ffffffffffffffffffffffffffffffffffffffff1663accdd16c8483815181106123ae576123ad614307565b5b60200260200101516040518263ffffffff1660e01b81526004016123d29190612a39565b600060405180830381600087803b1580156123ec57600080fd5b505af19250505080156123fd575060015b50806001019050612357565b507f000000000000000000000000000000000000000000000000000000000000000073ffffffffffffffffffffffffffffffffffffffff16638456cb596040518163ffffffff1660e01b8152600401600060405180830381600087803b15801561247257600080fd5b505af1925050508015612483575060015b507f000000000000000000000000000000000000000000000000000000000000000073ffffffffffffffffffffffffffffffffffffffff16638456cb596040518163ffffffff1660e01b8152600401600060405180830381600087803b1580156124ec57600080fd5b505af19250505080156124fd575060015b505050565b60007f000000000000000000000000000000000000000000000000000000000000000073ffffffffffffffffffffffffffffffffffffffff1663a75b496d6040518163ffffffff1660e01b8152600401600060405180830381865afa15801561256f573d6000803e3d6000fd5b505050506040513d6000823e3d601f19601f8201168201806040525081019061259891906142be565b905060008151905060005b81811015612655577f000000000000000000000000000000000000000000000000000000000000000073ffffffffffffffffffffffffffffffffffffffff166351d218f78483815181106125fa576125f9614307565b5b60200260200101516040518263ffffffff1660e01b815260040161261e9190612a39565b600060405180830381600087803b15801561263857600080fd5b505af1925050508015612649575060015b508060010190506125a3565b507f000000000000000000000000000000000000000000000000000000000000000073ffffffffffffffffffffffffffffffffffffffff16633f4ba83a6040518163ffffffff1660e01b8152600401600060405180830381600087803b1580156126be57600080fd5b505af19250505080156126cf575060015b507f000000000000000000000000000000000000000000000000000000000000000073ffffffffffffffffffffffffffffffffffffffff16633f4ba83a6040518163ffffffff1660e01b8152600401600060405180830381600087803b15801561273857600080fd5b505af1925050508015612749575060015b505050565b60005b8282905081101561294757600083838381811061277157612770614307565b5b90506020028101906127839190614336565b8060400190612792919061435e565b9050111561282b5760008383838181106127af576127ae614307565b5b90506020028101906127c19190614336565b60000160208101906127d39190612ba3565b73ffffffffffffffffffffffffffffffffffffffff163b1161282a576040517f08c379a000000000000000000000000000000000000000000000000000000000815260040161282190614433565b60405180910390fd5b5b60008084848481811061284157612840614307565b5b90506020028101906128539190614336565b60000160208101906128659190612ba3565b73ffffffffffffffffffffffffffffffffffffffff1685858581811061288e5761288d614307565b5b90506020028101906128a09190614336565b602001358686868181106128b7576128b6614307565b5b90506020028101906128c99190614336565b80604001906128d8919061435e565b6040516128e6929190614483565b60006040518083038185875af1925050503d8060008114612923576040519150601f19603f3d011682016040523d82523d6000602084013e612928565b606091505b50915091508161293a57805160208201fd5b5050806001019050612751565b505050565b60006203f480905090565b6000604051905090565b600080fd5b600080fd5b6000819050919050565b61297e8161296b565b811461298957600080fd5b50565b60008135905061299b81612975565b92915050565b6000602082840312156129b7576129b6612961565b5b60006129c58482850161298c565b91505092915050565b600073ffffffffffffffffffffffffffffffffffffffff82169050919050565b60006129f9826129ce565b9050919050565b612a09816129ee565b82525050565b6000602082019050612a246000830184612a00565b92915050565b612a338161296b565b82525050565b6000602082019050612a4e6000830184612a2a565b92915050565b6000819050919050565b6000612a79612a74612a6f846129ce565b612a54565b6129ce565b9050919050565b6000612a8b82612a5e565b9050919050565b6000612a9d82612a80565b9050919050565b612aad81612a92565b82525050565b6000602082019050612ac86000830184612aa4565b92915050565b600080fd5b600060608284031215612ae957612ae8612ace565b5b81905092915050565b600060208284031215612b0857612b07612961565b5b600082013567ffffffffffffffff811115612b2657612b25612966565b5b612b3284828501612ad3565b91505092915050565b6000612b4682612a80565b9050919050565b612b5681612b3b565b82525050565b6000602082019050612b716000830184612b4d565b92915050565b612b80816129ee565b8114612b8b57600080fd5b50565b600081359050612b9d81612b77565b92915050565b600060208284031215612bb957612bb8612961565b5b6000612bc784828501612b8e565b91505092915050565b6000819050919050565b612be381612bd0565b8114612bee57600080fd5b50565b600081359050612c0081612bda565b92915050565b600060208284031215612c1c57612c1b612961565b5b6000612c2a84828501612bf1565b91505092915050565b600061ffff82169050919050565b612c4a81612c33565b8114612c5557600080fd5b50565b600081359050612c6781612c41565b92915050565b600080fd5b600080fd5b600080fd5b60008083601f840112612c9257612c91612c6d565b5b8235905067ffffffffffffffff811115612caf57612cae612c72565b5b602083019150836020820283011115612ccb57612cca612c77565b5b9250929050565b60008060008060008060a08789031215612cef57612cee612961565b5b6000612cfd89828a0161298c565b9650506020612d0e89828a0161298c565b9550506040612d1f89828a01612c58565b945050606087013567ffffffffffffffff811115612d4057612d3f612966565b5b612d4c89828a01612c7c565b9350935050608087013567ffffffffffffffff811115612d6f57612d6e612966565b5b612d7b89828a01612ad3565b9150509295509295509295565b600065ffffffffffff82169050919050565b612da381612d88565b82525050565b60008115159050919050565b612dbe81612da9565b82525050565b600060a082019050612dd96000830188612d9a565b612de66020830187612d9a565b612df36040830186612db5565b612e006060830185612db5565b612e0d6080830184612db5565b9695505050505050565b7f4e487b7100000000000000000000000000000000000000000000000000000000600052602160045260246000fd5b60058110612e5757612e56612e17565b5b50565b6000819050612e6882612e46565b919050565b6000612e7882612e5a565b9050919050565b612e8881612e6d565b82525050565b6000602082019050612ea36000830184612e7f565b92915050565b60078110612eba57612eb9612e17565b5b50565b6000819050612ecb82612ea9565b919050565b6000612edb82612ebd565b9050919050565b612eeb81612ed0565b82525050565b6000602082019050612f066000830184612ee2565b92915050565b6000612f1782612a80565b9050919050565b612f2781612f0c565b82525050565b6000602082019050612f426000830184612f1e565b92915050565b600082825260208201905092915050565b7f50726f746f636f6c2073686f756c6420626520616c72656164792066726f7a6560008201527f6e00000000000000000000000000000000000000000000000000000000000000602082015250565b6000612fb5602183612f48565b9150612fc082612f59565b604082019050919050565b60006020820190508181036000830152612fe481612fa8565b9050919050565b7f4f6e6c7920536563757269747920436f756e63696c20697320616c6c6f77656460008201527f20746f2063616c6c20746869732066756e6374696f6e00000000000000000000602082015250565b6000613047603683612f48565b915061305282612feb565b604082019050919050565b600060208201905081810360008301526130768161303a565b9050919050565b7f50726f746f636f6c20616c72656164792066726f7a656e000000000000000000600082015250565b60006130b3601783612f48565b91506130be8261307d565b602082019050919050565b600060208201905081810360008301526130e2816130a6565b9050919050565b7f4e487b7100000000000000000000000000000000000000000000000000000000600052601160045260246000fd5b60006131238261296b565b915061312e8361296b565b9250828201905080821115613146576131456130e9565b5b92915050565b7f50726f746f636f6c2073686f756c6420626520616c726561647920756e66726f60008201527f7a656e0000000000000000000000000000000000000000000000000000000000602082015250565b60006131a8602383612f48565b91506131b38261314c565b604082019050919050565b600060208201905081810360008301526131d78161319b565b9050919050565b7f4f6e6c7920456d657267656e6379205570677261646520426f6172642069732060008201527f616c6c6f77656420746f2063616c6c20746869732066756e6374696f6e000000602082015250565b600061323a603d83612f48565b9150613245826131de565b604082019050919050565b600060208201905081810360008301526132698161322d565b9050919050565b600080fd5b600080fd5b600080fd5b6000808335600160200384360303811261329c5761329b61327a565b5b83810192508235915060208301925067ffffffffffffffff8211156132c4576132c3613270565b5b6020820236038313156132da576132d9613275565b5b509250929050565b600082825260208201905092915050565b6000819050919050565b600061330c6020840184612b8e565b905092915050565b61331d816129ee565b82525050565b6000613332602084018461298c565b905092915050565b6133438161296b565b82525050565b600080833560016020038436030381126133665761336561327a565b5b83810192508235915060208301925067ffffffffffffffff82111561338e5761338d613270565b5b6001820236038313156133a4576133a3613275565b5b509250929050565b600082825260208201905092915050565b82818337600083830152505050565b6000601f19601f8301169050919050565b60006133e983856133ac565b93506133f68385846133bd565b6133ff836133cc565b840190509392505050565b60006060830161341d60008401846132fd565b61342a6000860182613314565b506134386020840184613323565b613445602086018261333a565b506134536040840184613349565b85830360408701526134668382846133dd565b925050508091505092915050565b6000613480838361340a565b905092915050565b6000823560016060038336030381126134a4576134a361327a565b5b82810191505092915050565b6000602082019050919050565b60006134c983856132e2565b9350836020840285016134db846132f3565b8060005b8781101561351f5784840389526134f68284613488565b6135008582613474565b945061350b836134b0565b925060208a019950506001810190506134df565b50829750879450505050509392505050565b60006135406020840184612bf1565b905092915050565b61355181612bd0565b82525050565b60006060830161356a600084018461327f565b858303600087015261357d8382846134bd565b9250505061358e60208401846132fd565b61359b6020860182613314565b506135a96040840184613531565b6135b66040860182613548565b508091505092915050565b600060208201905081810360008301526135db8184613557565b905092915050565b7f5570677261646520616c72656164792065786973747300000000000000000000600082015250565b6000613619601683612f48565b9150613624826135e3565b602082019050919050565b600060208201905081810360008301526136488161360c565b9050919050565b7f6d73672e73656e646572206973206e6f7420617574686f72697a656420746f2060008201527f706572666f726d20746865207570677261646500000000000000000000000000602082015250565b60006136ab603383612f48565b91506136b68261364f565b604082019050919050565b600060208201905081810360008301526136da8161369e565b9050919050565b600080fd5b600080fd5b600080fd5b6000808335600160200384360303811261370d5761370c6136e1565b5b80840192508235915067ffffffffffffffff82111561372f5761372e6136e6565b5b60208301925060208202360383131561374b5761374a6136eb565b5b509250929050565b7f4f6e6c7920757067726164652068616e646c657220636f6e747261637420697460008201527f73656c6620697320616c6c6f77656420746f2063616c6c20746869732066756e60208201527f6374696f6e000000000000000000000000000000000000000000000000000000604082015250565b60006137d5604583612f48565b91506137e082613753565b606082019050919050565b60006020820190508181036000830152613804816137c8565b9050919050565b7f4f6e6c7920536563757269747920436f756e63696c20697320616c6c6f77656460008201527f20746f2063616c6c20746869732066756e6374696f6e206f722074686520707260208201527f6f746f636f6c2073686f756c642062652066726f7a656e000000000000000000604082015250565b600061388d605783612f48565b91506138988261380b565b606082019050919050565b600060208201905081810360008301526138bc81613880565b9050919050565b7f556e6578706563746564206c61737420667265657a6520737461747573000000600082015250565b60006138f9601d83612f48565b9150613904826138c3565b602082019050919050565b60006020820190508181036000830152613928816138ec565b9050919050565b7f4f6e6c7920677561726469616e7320697320616c6c6f77656420746f2063616c60008201527f6c20746869732066756e6374696f6e0000000000000000000000000000000000602082015250565b600061398b602f83612f48565b91506139968261392f565b604082019050919050565b600060208201905081810360008301526139ba8161397e565b9050919050565b7f5570677261646520697320616c726561647920617070726f766564206279206760008201527f7561726469616e73000000000000000000000000000000000000000000000000602082015250565b6000613a1d602883612f48565b9150613a28826139c1565b604082019050919050565b60006020820190508181036000830152613a4c81613a10565b9050919050565b7f5570677261646520776974682074686973206964206973206e6f74207761697460008201527f696e6720666f722074686520617070726f76616c2066726f6d2047756172646960208201527f616e730000000000000000000000000000000000000000000000000000000000604082015250565b6000613ad5604383612f48565b9150613ae082613a53565b606082019050919050565b60006020820190508181036000830152613b0481613ac8565b9050919050565b7f50726f746f636f6c2063616e277420626520686172642066726f7a656e000000600082015250565b6000613b41601d83612f48565b9150613b4c82613b0b565b602082019050919050565b60006020820190508181036000830152613b7081613b34565b9050919050565b613b8081612c33565b82525050565b600081519050919050565b60005b83811015613baf578082015181840152602081019050613b94565b60008484015250505050565b6000613bc682613b86565b613bd081856133ac565b9350613be0818560208601613b91565b613be9816133cc565b840191505092915050565b6000606083016000830151613c0c6000860182613b77565b506020830151613c1f6020860182613314565b5060408301518482036040860152613c378282613bbb565b9150508091505092915050565b600082825260208201905092915050565b600080fd5b82818337505050565b6000613c6f8385613c44565b93507f07ffffffffffffffffffffffffffffffffffffffffffffffffffffffffffffff831115613ca257613ca1613c55565b5b602083029250613cb3838584613c5a565b82840190509392505050565b6000608082019050613cd46000830188612a2a565b613ce16020830187612a2a565b8181036040830152613cf38186613bf4565b90508181036060830152613d08818486613c63565b90509695505050505050565b613d1d81612da9565b8114613d2857600080fd5b50565b600081519050613d3a81613d14565b92915050565b600060208284031215613d5657613d55612961565b5b6000613d6484828501613d2b565b91505092915050565b7f4661696c656420746f20636865636b20757067726164652070726f706f73616c60008201527f20696e6974696174696f6e000000000000000000000000000000000000000000602082015250565b6000613dc9602b83612f48565b9150613dd482613d6d565b604082019050919050565b60006020820190508181036000830152613df881613dbc565b9050919050565b7f456d657267656e6379205570677261646520426f6172642063616e277420657860008201527f656375746520757375616c207570677261646500000000000000000000000000602082015250565b6000613e5b603383612f48565b9150613e6682613dff565b604082019050919050565b60006020820190508181036000830152613e8a81613e4e565b9050919050565b7f557067726164652077697468207468697320696420616c72656164792065786960008201527f7374730000000000000000000000000000000000000000000000000000000000602082015250565b6000613eed602383612f48565b9150613ef882613e91565b604082019050919050565b60006020820190508181036000830152613f1c81613ee0565b9050919050565b7f55706772616465206973206e6f74207965742072656164790000000000000000600082015250565b6000613f59601883612f48565b9150613f6482613f23565b602082019050919050565b60006020820190508181036000830152613f8881613f4c565b9050919050565b7f4c6567616c207665746f20706572696f6420697320616c72656164792065787460008201527f656e646564000000000000000000000000000000000000000000000000000000602082015250565b6000613feb602583612f48565b9150613ff682613f8f565b604082019050919050565b6000602082019050818103600083015261401a81613fde565b9050919050565b7f5570677261646520776974682074686973206964206973206e6f7420696e207460008201527f6865206c6567616c207665746f20706572696f64000000000000000000000000602082015250565b600061407d603483612f48565b915061408882614021565b604082019050919050565b600060208201905081810360008301526140ac81614070565b9050919050565b7f5570677261646520776974682074686973206964206973206e6f74207761697460008201527f696e6720666f722074686520617070726f76616c2066726f6d2053656375726960208201527f747920436f756e63696c00000000000000000000000000000000000000000000604082015250565b6000614135604a83612f48565b9150614140826140b3565b606082019050919050565b6000602082019050818103600083015261416481614128565b9050919050565b7f4e487b7100000000000000000000000000000000000000000000000000000000600052604160045260246000fd5b6141a3826133cc565b810181811067ffffffffffffffff821117156141c2576141c161416b565b5b80604052505050565b60006141d5612957565b90506141e1828261419a565b919050565b600067ffffffffffffffff8211156142015761420061416b565b5b602082029050602081019050919050565b60008151905061422181612975565b92915050565b600061423a614235846141e6565b6141cb565b9050808382526020820190506020840283018581111561425d5761425c612c77565b5b835b8181101561428657806142728882614212565b84526020840193505060208101905061425f565b5050509392505050565b600082601f8301126142a5576142a4612c6d565b5b81516142b5848260208601614227565b91505092915050565b6000602082840312156142d4576142d3612961565b5b600082015167ffffffffffffffff8111156142f2576142f1612966565b5b6142fe84828501614290565b91505092915050565b7f4e487b7100000000000000000000000000000000000000000000000000000000600052603260045260246000fd5b600082356001606003833603038112614352576143516136e1565b5b80830191505092915050565b6000808335600160200384360303811261437b5761437a6136e1565b5b80840192508235915067ffffffffffffffff82111561439d5761439c6136e6565b5b6020830192506001820236038313156143b9576143b86136eb565b5b509250929050565b7f546172676574206d757374206265206120736d61727420636f6e74726163742060008201527f6966207468652063616c6c64617461206973206e6f7420656d70747900000000602082015250565b600061441d603c83612f48565b9150614428826143c1565b604082019050919050565b6000602082019050818103600083015261444c81614410565b9050919050565b600081905092915050565b600061446a8385614453565b93506144778385846133bd565b82840190509392505050565b600061449082848661445e565b9150819050939250505056fea264697066735822122088ad81505efc7dedab9671dc0bdb78e092bc4e287d69c8696efd6e84ec446a8864736f6c63430008180033",
  "linkReferences": {},
  "deployedLinkReferences": {}
}