{
  "_format": "hh-sol-artifact-1",
  "contractName": "Guardians",
  "sourceName": "contracts/zk-gov/l1-contracts/src/Guardians.sol",
  "abi": [
    {
      "inputs": [
        {
          "internalType": "contract IProtocolUpgradeHandler",
          "name": "_protocolUpgradeHandler",
          "type": "address"
        },
        {
          "internalType": "contract IZKsyncEra",
          "name": "_ZKsyncEra",
          "type": "address"
        },
        {
          "internalType": "address[]",
          "name": "_members",
          "type": "address[]"
        }
      ],
      "stateMutability": "nonpayable",
      "type": "constructor"
    },
    {
      "inputs": [],
      "name": "InvalidShortString",
      "type": "error"
    },
    {
      "inputs": [
        {
          "internalType": "string",
          "name": "str",
          "type": "string"
        }
      ],
      "name": "StringTooLong",
      "type": "error"
    },
    {
      "anonymous": false,
      "inputs": [],
      "name": "EIP712DomainChanged",
      "type": "event"
    },
    {
      "inputs": [],
      "name": "APPROVE_UPGRADE_GUARDIANS_THRESHOLD",
      "outputs": [
        {
          "internalType": "uint256",
          "name": "",
          "type": "uint256"
        }
      ],
      "stateMutability": "view",
      "type": "function"
    },
    {
      "inputs": [],
      "name": "CANCEL_L2_GOVERNOR_PROPOSAL_THRESHOLD",
      "outputs": [
        {
          "internalType": "uint256",
          "name": "",
          "type": "uint256"
        }
      ],
      "stateMutability": "view",
      "type": "function"
    },
    {
      "inputs": [],
      "name": "EIP1271_THRESHOLD",
      "outputs": [
        {
          "internalType": "uint256",
          "name": "",
          "type": "uint256"
        }
      ],
      "stateMutability": "view",
      "type": "function"
    },
    {
      "inputs": [],
      "name": "EXTEND_LEGAL_VETO_THRESHOLD",
      "outputs": [
        {
          "internalType": "uint256",
          "name": "",
          "type": "uint256"
        }
      ],
      "stateMutability": "view",
      "type": "function"
    },
    {
      "inputs": [],
      "name": "PROPOSE_L2_GOVERNOR_PROPOSAL_THRESHOLD",
      "outputs": [
        {
          "internalType": "uint256",
          "name": "",
          "type": "uint256"
        }
      ],
      "stateMutability": "view",
      "type": "function"
    },
    {
      "inputs": [],
      "name": "PROTOCOL_UPGRADE_HANDLER",
      "outputs": [
        {
          "internalType": "contract IProtocolUpgradeHandler",
          "name": "",
          "type": "address"
        }
      ],
      "stateMutability": "view",
      "type": "function"
    },
    {
      "inputs": [],
      "name": "ZKSYNC_ERA",
      "outputs": [
        {
          "internalType": "contract IZKsyncEra",
          "name": "",
          "type": "address"
        }
      ],
      "stateMutability": "view",
      "type": "function"
    },
    {
      "inputs": [
        {
          "internalType": "bytes32",
          "name": "_id",
          "type": "bytes32"
        },
        {
          "internalType": "address[]",
          "name": "_signers",
          "type": "address[]"
        },
        {
          "internalType": "bytes[]",
          "name": "_signatures",
          "type": "bytes[]"
        }
      ],
      "name": "approveUpgradeGuardians",
      "outputs": [],
      "stateMutability": "nonpayable",
      "type": "function"
    },
    {
      "inputs": [
        {
          "components": [
            {
              "internalType": "address[]",
              "name": "targets",
              "type": "address[]"
            },
            {
              "internalType": "uint256[]",
              "name": "values",
              "type": "uint256[]"
            },
            {
              "internalType": "bytes[]",
              "name": "calldatas",
              "type": "bytes[]"
            },
            {
              "internalType": "string",
              "name": "description",
              "type": "string"
            }
          ],
          "internalType": "struct IGuardians.L2GovernorProposal",
          "name": "_l2Proposal",
          "type": "tuple"
        },
        {
          "components": [
            {
              "internalType": "address",
              "name": "to",
              "type": "address"
            },
            {
              "internalType": "uint256",
              "name": "l2GasLimit",
              "type": "uint256"
            },
            {
              "internalType": "uint256",
              "name": "l2GasPerPubdataByteLimit",
              "type": "uint256"
            },
            {
              "internalType": "address",
              "name": "refundRecipient",
              "type": "address"
            },
            {
              "internalType": "uint256",
              "name": "txMintValue",
              "type": "uint256"
            }
          ],
          "internalType": "struct IGuardians.TxRequest",
          "name": "_txRequest",
          "type": "tuple"
        },
        {
          "internalType": "address[]",
          "name": "_signers",
          "type": "address[]"
        },
        {
          "internalType": "bytes[]",
          "name": "_signatures",
          "type": "bytes[]"
        }
      ],
      "name": "cancelL2GovernorProposal",
      "outputs": [],
      "stateMutability": "payable",
      "type": "function"
    },
    {
      "inputs": [
        {
          "internalType": "bytes32",
          "name": "_digest",
          "type": "bytes32"
        },
        {
          "internalType": "address[]",
          "name": "_signers",
          "type": "address[]"
        },
        {
          "internalType": "bytes[]",
          "name": "_signatures",
          "type": "bytes[]"
        },
        {
          "internalType": "uint256",
          "name": "_threshold",
          "type": "uint256"
        }
      ],
      "name": "checkSignatures",
      "outputs": [],
      "stateMutability": "view",
      "type": "function"
    },
    {
      "inputs": [],
      "name": "eip712Domain",
      "outputs": [
        {
          "internalType": "bytes1",
          "name": "fields",
          "type": "bytes1"
        },
        {
          "internalType": "string",
          "name": "name",
          "type": "string"
        },
        {
          "internalType": "string",
          "name": "version",
          "type": "string"
        },
        {
          "internalType": "uint256",
          "name": "chainId",
          "type": "uint256"
        },
        {
          "internalType": "address",
          "name": "verifyingContract",
          "type": "address"
        },
        {
          "internalType": "bytes32",
          "name": "salt",
          "type": "bytes32"
        },
        {
          "internalType": "uint256[]",
          "name": "extensions",
          "type": "uint256[]"
        }
      ],
      "stateMutability": "view",
      "type": "function"
    },
    {
      "inputs": [
        {
          "internalType": "bytes32",
          "name": "_id",
          "type": "bytes32"
        },
        {
          "internalType": "address[]",
          "name": "_signers",
          "type": "address[]"
        },
        {
          "internalType": "bytes[]",
          "name": "_signatures",
          "type": "bytes[]"
        }
      ],
      "name": "extendLegalVeto",
      "outputs": [],
      "stateMutability": "nonpayable",
      "type": "function"
    },
    {
      "inputs": [
        {
          "components": [
            {
              "internalType": "address[]",
              "name": "targets",
              "type": "address[]"
            },
            {
              "internalType": "uint256[]",
              "name": "values",
              "type": "uint256[]"
            },
            {
              "internalType": "bytes[]",
              "name": "calldatas",
              "type": "bytes[]"
            },
            {
              "internalType": "string",
              "name": "description",
              "type": "string"
            }
          ],
          "internalType": "struct IGuardians.L2GovernorProposal",
          "name": "_l2Proposal",
          "type": "tuple"
        }
      ],
      "name": "hashL2Proposal",
      "outputs": [
        {
          "internalType": "uint256",
          "name": "proposalId",
          "type": "uint256"
        }
      ],
      "stateMutability": "pure",
      "type": "function"
    },
    {
      "inputs": [
        {
          "internalType": "bytes32",
          "name": "_digest",
          "type": "bytes32"
        },
        {
          "internalType": "bytes",
          "name": "_signature",
          "type": "bytes"
        }
      ],
      "name": "isValidSignature",
      "outputs": [
        {
          "internalType": "bytes4",
          "name": "",
          "type": "bytes4"
        }
      ],
      "stateMutability": "view",
      "type": "function"
    },
    {
      "inputs": [
        {
          "internalType": "uint256",
          "name": "",
          "type": "uint256"
        }
      ],
      "name": "members",
      "outputs": [
        {
          "internalType": "address",
          "name": "",
          "type": "address"
        }
      ],
      "stateMutability": "view",
      "type": "function"
    },
    {
      "inputs": [],
      "name": "nonce",
      "outputs": [
        {
          "internalType": "uint256",
          "name": "",
          "type": "uint256"
        }
      ],
      "stateMutability": "view",
      "type": "function"
    },
    {
      "inputs": [
        {
          "components": [
            {
              "internalType": "address[]",
              "name": "targets",
              "type": "address[]"
            },
            {
              "internalType": "uint256[]",
              "name": "values",
              "type": "uint256[]"
            },
            {
              "internalType": "bytes[]",
              "name": "calldatas",
              "type": "bytes[]"
            },
            {
              "internalType": "string",
              "name": "description",
              "type": "string"
            }
          ],
          "internalType": "struct IGuardians.L2GovernorProposal",
          "name": "_l2Proposal",
          "type": "tuple"
        },
        {
          "components": [
            {
              "internalType": "address",
              "name": "to",
              "type": "address"
            },
            {
              "internalType": "uint256",
              "name": "l2GasLimit",
              "type": "uint256"
            },
            {
              "internalType": "uint256",
              "name": "l2GasPerPubdataByteLimit",
              "type": "uint256"
            },
            {
              "internalType": "address",
              "name": "refundRecipient",
              "type": "address"
            },
            {
              "internalType": "uint256",
              "name": "txMintValue",
              "type": "uint256"
            }
          ],
          "internalType": "struct IGuardians.TxRequest",
          "name": "_txRequest",
          "type": "tuple"
        },
        {
          "internalType": "address[]",
          "name": "_signers",
          "type": "address[]"
        },
        {
          "internalType": "bytes[]",
          "name": "_signatures",
          "type": "bytes[]"
        }
      ],
      "name": "proposeL2GovernorProposal",
      "outputs": [],
      "stateMutability": "payable",
      "type": "function"
    }
  ],
  "bytecode": "0x6101c06040523480156200001257600080fd5b5060405162003f5038038062003f50833981810160405281019062000038919062000768565b6040518060400160405280600981526020017f477561726469616e7300000000000000000000000000000000000000000000008152506040518060400160405280600181526020017f310000000000000000000000000000000000000000000000000000000000000081525082600560008111620000ed576040517f08c379a0000000000000000000000000000000000000000000000000000000008152600401620000e49062000844565b60405180910390fd5b815181111562000134576040517f08c379a00000000000000000000000000000000000000000000000000000000081526004016200012b90620008b6565b60405180910390fd5b8060808181525050600080600090505b835181101562000254576000848281518110620001665762000165620008d8565b5b602002602001015190508073ffffffffffffffffffffffffffffffffffffffff168373ffffffffffffffffffffffffffffffffffffffff1610620001e1576040517f08c379a0000000000000000000000000000000000000000000000000000000008152600401620001d8906200097d565b60405180910390fd5b6000819080600181540180825580915050600190039060005260206000200160009091909190916101000a81548173ffffffffffffffffffffffffffffffffffffffff021916908373ffffffffffffffffffffffffffffffffffffffff1602179055508092505080600101905062000144565b505050506200026e600183620003c360201b90919060201c565b61014081815250506200028c600282620003c360201b90919060201c565b610160818152505081805190602001206101008181525050808051906020012061012081815250504660c08181525050620002cc6200041b60201b60201c565b60a081815250503073ffffffffffffffffffffffffffffffffffffffff1660e08173ffffffffffffffffffffffffffffffffffffffff168152505050508273ffffffffffffffffffffffffffffffffffffffff166101808173ffffffffffffffffffffffffffffffffffffffff16815250508173ffffffffffffffffffffffffffffffffffffffff166101a08173ffffffffffffffffffffffffffffffffffffffff16815250506008815114620003ba576040517f08c379a0000000000000000000000000000000000000000000000000000000008152600401620003b19062000a15565b60405180910390fd5b50505062000f36565b6000602083511015620003e957620003e1836200047960201b60201c565b905062000415565b82620003fb83620004e660201b60201c565b60000190816200040c919062000c82565b5060ff60001b90505b92915050565b60007f8b73c3c69bb8fe3d512ecc4cf759cc79239f7b179b0ffacaa9a75d522b39400f610100516101205146306040516020016200045e95949392919062000da6565b60405160208183030381529060405280519060200120905090565b600080829050601f81511115620004c957826040517f305a27a9000000000000000000000000000000000000000000000000000000008152600401620004c0919062000e70565b60405180910390fd5b805181620004d79062000ec6565b60001c1760001b915050919050565b6000819050919050565b6000604051905090565b600080fd5b600080fd5b600073ffffffffffffffffffffffffffffffffffffffff82169050919050565b6000620005318262000504565b9050919050565b6000620005458262000524565b9050919050565b620005578162000538565b81146200056357600080fd5b50565b60008151905062000577816200054c565b92915050565b60006200058a8262000524565b9050919050565b6200059c816200057d565b8114620005a857600080fd5b50565b600081519050620005bc8162000591565b92915050565b600080fd5b6000601f19601f8301169050919050565b7f4e487b7100000000000000000000000000000000000000000000000000000000600052604160045260246000fd5b6200061282620005c7565b810181811067ffffffffffffffff82111715620006345762000633620005d8565b5b80604052505050565b600062000649620004f0565b905062000657828262000607565b919050565b600067ffffffffffffffff8211156200067a5762000679620005d8565b5b602082029050602081019050919050565b600080fd5b6200069b8162000524565b8114620006a757600080fd5b50565b600081519050620006bb8162000690565b92915050565b6000620006d8620006d2846200065c565b6200063d565b90508083825260208201905060208402830185811115620006fe57620006fd6200068b565b5b835b818110156200072b5780620007168882620006aa565b84526020840193505060208101905062000700565b5050509392505050565b600082601f8301126200074d576200074c620005c2565b5b81516200075f848260208601620006c1565b91505092915050565b600080600060608486031215620007845762000783620004fa565b5b6000620007948682870162000566565b9350506020620007a786828701620005ab565b925050604084015167ffffffffffffffff811115620007cb57620007ca620004ff565b5b620007d98682870162000735565b9150509250925092565b600082825260208201905092915050565b7f4549502d31323731207468726573686f6c6420697320746f6f20736d616c6c00600082015250565b60006200082c601f83620007e3565b91506200083982620007f4565b602082019050919050565b600060208201905081810360008301526200085f816200081d565b9050919050565b7f4549502d31323731207468726573686f6c6420697320746f6f20626967000000600082015250565b60006200089e601d83620007e3565b9150620008ab8262000866565b602082019050919050565b60006020820190508181036000830152620008d1816200088f565b9050919050565b7f4e487b7100000000000000000000000000000000000000000000000000000000600052603260045260246000fd5b7f4d656d62657273206e6f7420736f72746564206f72206475706c69636174652060008201527f666f756e64000000000000000000000000000000000000000000000000000000602082015250565b600062000965602583620007e3565b9150620009728262000907565b604082019050919050565b60006020820190508181036000830152620009988162000956565b9050919050565b7f477561726469616e732072657175697265732065786163746c792038206d656d60008201527f6265727300000000000000000000000000000000000000000000000000000000602082015250565b6000620009fd602483620007e3565b915062000a0a826200099f565b604082019050919050565b6000602082019050818103600083015262000a3081620009ee565b9050919050565b600081519050919050565b7f4e487b7100000000000000000000000000000000000000000000000000000000600052602260045260246000fd5b6000600282049050600182168062000a8a57607f821691505b60208210810362000aa05762000a9f62000a42565b5b50919050565b60008190508160005260206000209050919050565b60006020601f8301049050919050565b600082821b905092915050565b60006008830262000b0a7fffffffffffffffffffffffffffffffffffffffffffffffffffffffffffffffff8262000acb565b62000b16868362000acb565b95508019841693508086168417925050509392505050565b6000819050919050565b6000819050919050565b600062000b6362000b5d62000b578462000b2e565b62000b38565b62000b2e565b9050919050565b6000819050919050565b62000b7f8362000b42565b62000b9762000b8e8262000b6a565b84845462000ad8565b825550505050565b600090565b62000bae62000b9f565b62000bbb81848462000b74565b505050565b5b8181101562000be35762000bd760008262000ba4565b60018101905062000bc1565b5050565b601f82111562000c325762000bfc8162000aa6565b62000c078462000abb565b8101602085101562000c17578190505b62000c2f62000c268562000abb565b83018262000bc0565b50505b505050565b600082821c905092915050565b600062000c576000198460080262000c37565b1980831691505092915050565b600062000c72838362000c44565b9150826002028217905092915050565b62000c8d8262000a37565b67ffffffffffffffff81111562000ca95762000ca8620005d8565b5b62000cb5825462000a71565b62000cc282828562000be7565b600060209050601f83116001811462000cfa576000841562000ce5578287015190505b62000cf1858262000c64565b86555062000d61565b601f19841662000d0a8662000aa6565b60005b8281101562000d345784890151825560018201915060208501945060208101905062000d0d565b8683101562000d54578489015162000d50601f89168262000c44565b8355505b6001600288020188555050505b505050505050565b6000819050919050565b62000d7e8162000d69565b82525050565b62000d8f8162000b2e565b82525050565b62000da08162000524565b82525050565b600060a08201905062000dbd600083018862000d73565b62000dcc602083018762000d73565b62000ddb604083018662000d73565b62000dea606083018562000d84565b62000df9608083018462000d95565b9695505050505050565b60005b8381101562000e2357808201518184015260208101905062000e06565b60008484015250505050565b600062000e3c8262000a37565b62000e488185620007e3565b935062000e5a81856020860162000e03565b62000e6581620005c7565b840191505092915050565b6000602082019050818103600083015262000e8c818462000e2f565b905092915050565b600081519050919050565b6000819050602082019050919050565b600062000ebd825162000d69565b80915050919050565b600062000ed38262000e94565b8262000edf8462000e9f565b905062000eec8162000eaf565b9250602082101562000f2f5762000f2a7fffffffffffffffffffffffffffffffffffffffffffffffffffffffffffffffff8360200360080262000acb565b831692505b5050919050565b60805160a05160c05160e05161010051610120516101405161016051610180516101a051612f7b62000fd56000396000818161081401528181610d0e0152611052015260008181610a2801528181610ec30152610f960152600061116201526000611127015260006115f6015260006115d5015260006113180152600061136e01526000611397015260008181610416015261102e0152612f7b6000f3fe6080604052600436106100fe5760003560e01c806384b0196e11610095578063b4c77c3b11610064578063b4c77c3b14610321578063bf6b96401461034c578063cf404b1314610375578063dbf96b80146103a0578063f12913d8146103cb576100fe565b806384b0196e1461026c578063943114d31461029d578063a493872b146102b9578063affed0e0146102f6576100fe565b80632c46ad8b116100d15780632c46ad8b146101bf5780633bd5402b146101db5780635daf08ca1461020657806369ffe80914610243576100fe565b80631626ba7e146101035780631729e0df14610140578063194b1ee61461016b5780631c9c6a7a14610194575b600080fd5b34801561010f57600080fd5b5061012a600480360381019061012591906117b9565b6103f6565b6040516101379190611854565b60405180910390f35b34801561014c57600080fd5b5061015561044d565b6040516101629190611888565b60405180910390f35b34801561017757600080fd5b50610192600480360381019061018d9190611c12565b610452565b005b3480156101a057600080fd5b506101a961064f565b6040516101b69190611888565b60405180910390f35b6101d960048036038101906101d49190611da0565b610654565b005b3480156101e757600080fd5b506101f0610933565b6040516101fd9190611888565b60405180910390f35b34801561021257600080fd5b5061022d60048036038101906102289190611e64565b610938565b60405161023a9190611ea0565b60405180910390f35b34801561024f57600080fd5b5061026a60048036038101906102659190611ebb565b610977565b005b34801561027857600080fd5b50610281610ab9565b60405161029497969594939291906120d7565b60405180910390f35b6102b760048036038101906102b29190611da0565b610b63565b005b3480156102c557600080fd5b506102e060048036038101906102db919061215b565b610e2d565b6040516102ed9190611888565b60405180910390f35b34801561030257600080fd5b5061030b610ebb565b6040516103189190611888565b60405180910390f35b34801561032d57600080fd5b50610336610ec1565b6040516103439190612203565b60405180910390f35b34801561035857600080fd5b50610373600480360381019061036e9190611ebb565b610ee5565b005b34801561038157600080fd5b5061038a611027565b6040516103979190611888565b60405180910390f35b3480156103ac57600080fd5b506103b561102c565b6040516103c29190611888565b60405180910390f35b3480156103d757600080fd5b506103e0611050565b6040516103ed919061223f565b60405180910390f35b6000806000848481019061040a919061225a565b9150915061043a8683837f0000000000000000000000000000000000000000000000000000000000000000610452565b631626ba7e60e01b925050509392505050565b600581565b8082511015610496576040517f08c379a000000000000000000000000000000000000000000000000000000000815260040161048d9061231e565b60405180910390fd5b81518351146104da576040517f08c379a00000000000000000000000000000000000000000000000000000000081526004016104d1906123b0565b60405180910390fd5b600080600090505b835181101561064757600061054c87868481518110610504576105036123d0565b5b602002602001015188858151811061051f5761051e6123d0565b5b602002602001015173ffffffffffffffffffffffffffffffffffffffff166110749092919063ffffffff16565b90508061058e576040517f08c379a00000000000000000000000000000000000000000000000000000000081526004016105859061244b565b60405180910390fd5b5b8582815181106105a2576105a16123d0565b5b602002602001015173ffffffffffffffffffffffffffffffffffffffff16600084815481106105d4576105d36123d0565b5b9060005260206000200160009054906101000a900473ffffffffffffffffffffffffffffffffffffffff1673ffffffffffffffffffffffffffffffffffffffff161461062d5782806106259061249a565b93505061058f565b82806106389061249a565b935050508060010190506104e2565b505050505050565b600281565b60006107017f8b11acd0ef1224d9667d505a66919340beb45aa850b9ddef03c49b2b6699314661068389610e2d565b88600001602081019061069691906124e2565b89602001358a604001358b60600160208101906106b391906124e2565b8c60800135600360008154809291906106cb9061249a565b919050556040516020016106e698979695949392919061250f565b60405160208183030381529060405280519060200120611104565b905061075d81868680806020026020016040519081016040528093929190818152602001838360200280828437600081840152601f19601f82011690508083019250505050505050858590610756919061258d565b6005610452565b600087806000019061076f91906125b1565b89806020019061077f9190612614565b8b806040019061078f9190612677565b8d806060019061079f91906126da565b6040516107ad92919061276d565b60405180910390206040516024016107cb9796959493929190612a17565b60405160208183030381529060405263452115d660e01b6020820180517bffffffffffffffffffffffffffffffffffffffffffffffffffffffff838183161783525050505090507f000000000000000000000000000000000000000000000000000000000000000073ffffffffffffffffffffffffffffffffffffffff1663eb672419886080013589600001602081019061086691906124e2565b6000858c602001358d60400135600067ffffffffffffffff81111561088e5761088d6118b4565b5b6040519080825280602002602001820160405280156108c157816020015b60608152602001906001900390816108ac5790505b508f60600160208101906108d591906124e2565b6040518963ffffffff1660e01b81526004016108f79796959493929190612bf1565b6000604051808303818588803b15801561091057600080fd5b505af1158015610924573d6000803e3d6000fd5b50505050505050505050505050565b600581565b6000818154811061094857600080fd5b906000526020600020016000915054906101000a900473ffffffffffffffffffffffffffffffffffffffff1681565b60006109ca7ffd23abc4928bc62d877a389de1c4ae2087b8278a8f84c6345bf45308a0d903d6876040516020016109af929190612c6e565b60405160208183030381529060405280519060200120611104565b9050610a2681868680806020026020016040519081016040528093929190818152602001838360200280828437600081840152601f19601f82011690508083019250505050505050858590610a1f919061258d565b6005610452565b7f000000000000000000000000000000000000000000000000000000000000000073ffffffffffffffffffffffffffffffffffffffff166374f5d9d2876040518263ffffffff1660e01b8152600401610a7f9190612c97565b600060405180830381600087803b158015610a9957600080fd5b505af1158015610aad573d6000803e3d6000fd5b50505050505050505050565b600060608060008060006060610acd61111e565b610ad5611159565b46306000801b600067ffffffffffffffff811115610af657610af56118b4565b5b604051908082528060200260200182016040528015610b245781602001602082028036833780820191505090505b507f0f00000000000000000000000000000000000000000000000000000000000000959493929190965096509650965096509650965090919293949596565b6000610c107fce700c5fadc92c997c40ac3e076cb22e2595c19719e6c777b19fc026d7a365d1610b9289610e2d565b886000016020810190610ba591906124e2565b89602001358a604001358b6060016020810190610bc291906124e2565b8c6080013560036000815480929190610bda9061249a565b91905055604051602001610bf598979695949392919061250f565b60405160208183030381529060405280519060200120611104565b9050610c6c81868680806020026020016040519081016040528093929190818152602001838360200280828437600081840152601f19601f82011690508083019250505050505050858590610c65919061258d565b6005610452565b6000878060000190610c7e91906125b1565b898060200190610c8e9190612614565b8b8060400190610c9e9190612677565b8d8060600190610cae91906126da565b604051602401610cc5989796959493929190612cdf565b604051602081830303815290604052637d5e81e260e01b6020820180517bffffffffffffffffffffffffffffffffffffffffffffffffffffffff838183161783525050505090507f000000000000000000000000000000000000000000000000000000000000000073ffffffffffffffffffffffffffffffffffffffff1663eb6724198860800135896000016020810190610d6091906124e2565b6000858c602001358d60400135600067ffffffffffffffff811115610d8857610d876118b4565b5b604051908082528060200260200182016040528015610dbb57816020015b6060815260200190600190039081610da65790505b508f6060016020810190610dcf91906124e2565b6040518963ffffffff1660e01b8152600401610df19796959493929190612bf1565b6000604051808303818588803b158015610e0a57600080fd5b505af1158015610e1e573d6000803e3d6000fd5b50505050505050505050505050565b6000818060000190610e3f91906125b1565b838060200190610e4f9190612614565b858060400190610e5f9190612677565b878060600190610e6f91906126da565b604051610e7d92919061276d565b6040518091039020604051602001610e9b9796959493929190612a17565b6040516020818303038152906040528051906020012060001c9050919050565b60035481565b7f000000000000000000000000000000000000000000000000000000000000000081565b6000610f387feee1550e5990c0bd33af55b02a77f2b470375c86fec5b56614b8580b066c032587604051602001610f1d929190612c6e565b60405160208183030381529060405280519060200120611104565b9050610f9481868680806020026020016040519081016040528093929190818152602001838360200280828437600081840152601f19601f82011690508083019250505050505050858590610f8d919061258d565b6002610452565b7f000000000000000000000000000000000000000000000000000000000000000073ffffffffffffffffffffffffffffffffffffffff1663b429f41c876040518263ffffffff1660e01b8152600401610fed9190612c97565b600060405180830381600087803b15801561100757600080fd5b505af115801561101b573d6000803e3d6000fd5b50505050505050505050565b600581565b7f000000000000000000000000000000000000000000000000000000000000000081565b7f000000000000000000000000000000000000000000000000000000000000000081565b60008060006110838585611194565b50915091506000600381111561109c5761109b612d48565b5b8160038111156110af576110ae612d48565b5b1480156110e757508573ffffffffffffffffffffffffffffffffffffffff168273ffffffffffffffffffffffffffffffffffffffff16145b806110f957506110f88686866111f0565b5b925050509392505050565b6000611117611111611314565b836113cb565b9050919050565b606061115460017f000000000000000000000000000000000000000000000000000000000000000061140c90919063ffffffff16565b905090565b606061118f60027f000000000000000000000000000000000000000000000000000000000000000061140c90919063ffffffff16565b905090565b600080600060418451036111d95760008060006020870151925060408701519150606087015160001a90506111cb888285856114bc565b9550955095505050506111e9565b60006002855160001b9250925092505b9250925092565b60008060008573ffffffffffffffffffffffffffffffffffffffff16858560405160240161121f929190612d77565b604051602081830303815290604052631626ba7e60e01b6020820180517bffffffffffffffffffffffffffffffffffffffffffffffffffffffff83818316178352505050506040516112719190612dd8565b600060405180830381855afa9150503d80600081146112ac576040519150601f19603f3d011682016040523d82523d6000602084013e6112b1565b606091505b50915091508180156112c557506020815110155b80156113095750631626ba7e60e01b7bffffffffffffffffffffffffffffffffffffffffffffffffffffffff1916818060200190518101906113079190612e04565b145b925050509392505050565b60007f000000000000000000000000000000000000000000000000000000000000000073ffffffffffffffffffffffffffffffffffffffff163073ffffffffffffffffffffffffffffffffffffffff1614801561139057507f000000000000000000000000000000000000000000000000000000000000000046145b156113bd577f000000000000000000000000000000000000000000000000000000000000000090506113c8565b6113c56115b0565b90505b90565b60006040517f190100000000000000000000000000000000000000000000000000000000000081528360028201528260228201526042812091505092915050565b606060ff60001b83146114295761142283611646565b90506114b6565b81805461143590612e60565b80601f016020809104026020016040519081016040528092919081815260200182805461146190612e60565b80156114ae5780601f10611483576101008083540402835291602001916114ae565b820191906000526020600020905b81548152906001019060200180831161149157829003601f168201915b505050505090505b92915050565b60008060007f7fffffffffffffffffffffffffffffff5d576e7357a4501ddfe92f46681b20a08460001c11156114fc5760006003859250925092506115a6565b6000600188888888604051600081526020016040526040516115219493929190612ead565b6020604051602081039080840390855afa158015611543573d6000803e3d6000fd5b505050602060405103519050600073ffffffffffffffffffffffffffffffffffffffff168173ffffffffffffffffffffffffffffffffffffffff160361159757600060016000801b935093509350506115a6565b8060008060001b935093509350505b9450945094915050565b60007f8b73c3c69bb8fe3d512ecc4cf759cc79239f7b179b0ffacaa9a75d522b39400f7f00000000000000000000000000000000000000000000000000000000000000007f0000000000000000000000000000000000000000000000000000000000000000463060405160200161162b959493929190612ef2565b60405160208183030381529060405280519060200120905090565b60606000611653836116ba565b90506000602067ffffffffffffffff811115611672576116716118b4565b5b6040519080825280601f01601f1916602001820160405280156116a45781602001600182028036833780820191505090505b5090508181528360208201528092505050919050565b60008060ff8360001c169050601f811115611701576040517fb3512b0c00000000000000000000000000000000000000000000000000000000815260040160405180910390fd5b80915050919050565b6000604051905090565b600080fd5b600080fd5b6000819050919050565b6117318161171e565b811461173c57600080fd5b50565b60008135905061174e81611728565b92915050565b600080fd5b600080fd5b600080fd5b60008083601f84011261177957611778611754565b5b8235905067ffffffffffffffff81111561179657611795611759565b5b6020830191508360018202830111156117b2576117b161175e565b5b9250929050565b6000806000604084860312156117d2576117d1611714565b5b60006117e08682870161173f565b935050602084013567ffffffffffffffff81111561180157611800611719565b5b61180d86828701611763565b92509250509250925092565b60007fffffffff0000000000000000000000000000000000000000000000000000000082169050919050565b61184e81611819565b82525050565b60006020820190506118696000830184611845565b92915050565b6000819050919050565b6118828161186f565b82525050565b600060208201905061189d6000830184611879565b92915050565b6000601f19601f8301169050919050565b7f4e487b7100000000000000000000000000000000000000000000000000000000600052604160045260246000fd5b6118ec826118a3565b810181811067ffffffffffffffff8211171561190b5761190a6118b4565b5b80604052505050565b600061191e61170a565b905061192a82826118e3565b919050565b600067ffffffffffffffff82111561194a576119496118b4565b5b602082029050602081019050919050565b600073ffffffffffffffffffffffffffffffffffffffff82169050919050565b60006119868261195b565b9050919050565b6119968161197b565b81146119a157600080fd5b50565b6000813590506119b38161198d565b92915050565b60006119cc6119c78461192f565b611914565b905080838252602082019050602084028301858111156119ef576119ee61175e565b5b835b81811015611a185780611a0488826119a4565b8452602084019350506020810190506119f1565b5050509392505050565b600082601f830112611a3757611a36611754565b5b8135611a478482602086016119b9565b91505092915050565b600067ffffffffffffffff821115611a6b57611a6a6118b4565b5b602082029050602081019050919050565b600080fd5b600067ffffffffffffffff821115611a9c57611a9b6118b4565b5b611aa5826118a3565b9050602081019050919050565b82818337600083830152505050565b6000611ad4611acf84611a81565b611914565b905082815260208101848484011115611af057611aef611a7c565b5b611afb848285611ab2565b509392505050565b600082601f830112611b1857611b17611754565b5b8135611b28848260208601611ac1565b91505092915050565b6000611b44611b3f84611a50565b611914565b90508083825260208201905060208402830185811115611b6757611b6661175e565b5b835b81811015611bae57803567ffffffffffffffff811115611b8c57611b8b611754565b5b808601611b998982611b03565b85526020850194505050602081019050611b69565b5050509392505050565b600082601f830112611bcd57611bcc611754565b5b8135611bdd848260208601611b31565b91505092915050565b611bef8161186f565b8114611bfa57600080fd5b50565b600081359050611c0c81611be6565b92915050565b60008060008060808587031215611c2c57611c2b611714565b5b6000611c3a8782880161173f565b945050602085013567ffffffffffffffff811115611c5b57611c5a611719565b5b611c6787828801611a22565b935050604085013567ffffffffffffffff811115611c8857611c87611719565b5b611c9487828801611bb8565b9250506060611ca587828801611bfd565b91505092959194509250565b600080fd5b600060808284031215611ccc57611ccb611cb1565b5b81905092915050565b600060a08284031215611ceb57611cea611cb1565b5b81905092915050565b60008083601f840112611d0a57611d09611754565b5b8235905067ffffffffffffffff811115611d2757611d26611759565b5b602083019150836020820283011115611d4357611d4261175e565b5b9250929050565b60008083601f840112611d6057611d5f611754565b5b8235905067ffffffffffffffff811115611d7d57611d7c611759565b5b602083019150836020820283011115611d9957611d9861175e565b5b9250929050565b6000806000806000806101008789031215611dbe57611dbd611714565b5b600087013567ffffffffffffffff811115611ddc57611ddb611719565b5b611de889828a01611cb6565b9650506020611df989828a01611cd5565b95505060c087013567ffffffffffffffff811115611e1a57611e19611719565b5b611e2689828a01611cf4565b945094505060e087013567ffffffffffffffff811115611e4957611e48611719565b5b611e5589828a01611d4a565b92509250509295509295509295565b600060208284031215611e7a57611e79611714565b5b6000611e8884828501611bfd565b91505092915050565b611e9a8161197b565b82525050565b6000602082019050611eb56000830184611e91565b92915050565b600080600080600060608688031215611ed757611ed6611714565b5b6000611ee58882890161173f565b955050602086013567ffffffffffffffff811115611f0657611f05611719565b5b611f1288828901611cf4565b9450945050604086013567ffffffffffffffff811115611f3557611f34611719565b5b611f4188828901611d4a565b92509250509295509295909350565b60007fff0000000000000000000000000000000000000000000000000000000000000082169050919050565b611f8581611f50565b82525050565b600081519050919050565b600082825260208201905092915050565b60005b83811015611fc5578082015181840152602081019050611faa565b60008484015250505050565b6000611fdc82611f8b565b611fe68185611f96565b9350611ff6818560208601611fa7565b611fff816118a3565b840191505092915050565b6120138161171e565b82525050565b600081519050919050565b600082825260208201905092915050565b6000819050602082019050919050565b61204e8161186f565b82525050565b60006120608383612045565b60208301905092915050565b6000602082019050919050565b600061208482612019565b61208e8185612024565b935061209983612035565b8060005b838110156120ca5781516120b18882612054565b97506120bc8361206c565b92505060018101905061209d565b5085935050505092915050565b600060e0820190506120ec600083018a611f7c565b81810360208301526120fe8189611fd1565b905081810360408301526121128188611fd1565b90506121216060830187611879565b61212e6080830186611e91565b61213b60a083018561200a565b81810360c083015261214d8184612079565b905098975050505050505050565b60006020828403121561217157612170611714565b5b600082013567ffffffffffffffff81111561218f5761218e611719565b5b61219b84828501611cb6565b91505092915050565b6000819050919050565b60006121c96121c46121bf8461195b565b6121a4565b61195b565b9050919050565b60006121db826121ae565b9050919050565b60006121ed826121d0565b9050919050565b6121fd816121e2565b82525050565b600060208201905061221860008301846121f4565b92915050565b6000612229826121d0565b9050919050565b6122398161221e565b82525050565b60006020820190506122546000830184612230565b92915050565b6000806040838503121561227157612270611714565b5b600083013567ffffffffffffffff81111561228f5761228e611719565b5b61229b85828601611a22565b925050602083013567ffffffffffffffff8111156122bc576122bb611719565b5b6122c885828601611bb8565b9150509250929050565b7f496e73756666696369656e742076616c6964207369676e617475726573000000600082015250565b6000612308601d83611f96565b9150612313826122d2565b602082019050919050565b60006020820190508181036000830152612337816122fb565b9050919050565b7f496e636f6e73697374656e74207369676e6572732f7369676e6174757265732060008201527f6c656e6774680000000000000000000000000000000000000000000000000000602082015250565b600061239a602683611f96565b91506123a58261233e565b604082019050919050565b600060208201905081810360008301526123c98161238d565b9050919050565b7f4e487b7100000000000000000000000000000000000000000000000000000000600052603260045260246000fd5b7f5369676e617475726520766572696669636174696f6e206661696c6564000000600082015250565b6000612435601d83611f96565b9150612440826123ff565b602082019050919050565b6000602082019050818103600083015261246481612428565b9050919050565b7f4e487b7100000000000000000000000000000000000000000000000000000000600052601160045260246000fd5b60006124a58261186f565b91507fffffffffffffffffffffffffffffffffffffffffffffffffffffffffffffffff82036124d7576124d661246b565b5b600182019050919050565b6000602082840312156124f8576124f7611714565b5b6000612506848285016119a4565b91505092915050565b600061010082019050612525600083018b61200a565b612532602083018a611879565b61253f6040830189611e91565b61254c6060830188611879565b6125596080830187611879565b61256660a0830186611e91565b61257360c0830185611879565b61258060e0830184611879565b9998505050505050505050565b600061259a368484611b31565b905092915050565b600080fd5b600080fd5b600080fd5b600080833560016020038436030381126125ce576125cd6125a2565b5b80840192508235915067ffffffffffffffff8211156125f0576125ef6125a7565b5b60208301925060208202360383131561260c5761260b6125ac565b5b509250929050565b60008083356001602003843603038112612631576126306125a2565b5b80840192508235915067ffffffffffffffff821115612653576126526125a7565b5b60208301925060208202360383131561266f5761266e6125ac565b5b509250929050565b60008083356001602003843603038112612694576126936125a2565b5b80840192508235915067ffffffffffffffff8211156126b6576126b56125a7565b5b6020830192506020820236038313156126d2576126d16125ac565b5b509250929050565b600080833560016020038436030381126126f7576126f66125a2565b5b80840192508235915067ffffffffffffffff821115612719576127186125a7565b5b602083019250600182023603831315612735576127346125ac565b5b509250929050565b600081905092915050565b6000612754838561273d565b9350612761838584611ab2565b82840190509392505050565b600061277a828486612748565b91508190509392505050565b600082825260208201905092915050565b6000819050919050565b6127aa8161197b565b82525050565b60006127bc83836127a1565b60208301905092915050565b60006127d760208401846119a4565b905092915050565b6000602082019050919050565b60006127f88385612786565b935061280382612797565b8060005b8581101561283c5761281982846127c8565b61282388826127b0565b975061282e836127df565b925050600181019050612807565b5085925050509392505050565b600080fd5b82818337505050565b60006128638385612024565b93507f07ffffffffffffffffffffffffffffffffffffffffffffffffffffffffffffff83111561289657612895612849565b5b6020830292506128a783858461284e565b82840190509392505050565b600082825260208201905092915050565b6000819050919050565b600082825260208201905092915050565b60006128eb83856128ce565b93506128f8838584611ab2565b612901836118a3565b840190509392505050565b60006129198484846128df565b90509392505050565b600080fd5b600080fd5b600080fd5b6000808335600160200384360303811261294e5761294d61292c565b5b83810192508235915060208301925067ffffffffffffffff82111561297657612975612922565b5b60018202360383131561298c5761298b612927565b5b509250929050565b6000602082019050919050565b60006129ad83856128b3565b9350836020840285016129bf846128c4565b8060005b87811015612a055784840389526129da8284612931565b6129e586828461290c565b95506129f084612994565b935060208b019a5050506001810190506129c3565b50829750879450505050509392505050565b60006080820190508181036000830152612a3281898b6127ec565b90508181036020830152612a47818789612857565b90508181036040830152612a5c8185876129a1565b9050612a6b606083018461200a565b98975050505050505050565b6000819050919050565b6000612a9c612a97612a9284612a77565b6121a4565b61186f565b9050919050565b612aac81612a81565b82525050565b600081519050919050565b600082825260208201905092915050565b6000612ad982612ab2565b612ae38185612abd565b9350612af3818560208601611fa7565b612afc816118a3565b840191505092915050565b600081519050919050565b6000819050602082019050919050565b6000612b2d82612ab2565b612b3781856128ce565b9350612b47818560208601611fa7565b612b50816118a3565b840191505092915050565b6000612b678383612b22565b905092915050565b6000602082019050919050565b6000612b8782612b07565b612b9181856128b3565b935083602082028501612ba385612b12565b8060005b85811015612bdf5784840389528151612bc08582612b5b565b9450612bcb83612b6f565b925060208a01995050600181019050612ba7565b50829750879550505050505092915050565b600060e082019050612c06600083018a611e91565b612c136020830189612aa3565b8181036040830152612c258188612ace565b9050612c346060830187611879565b612c416080830186611879565b81810360a0830152612c538185612b7c565b9050612c6260c0830184611e91565b98975050505050505050565b6000604082019050612c83600083018561200a565b612c90602083018461200a565b9392505050565b6000602082019050612cac600083018461200a565b92915050565b6000612cbe8385611f96565b9350612ccb838584611ab2565b612cd4836118a3565b840190509392505050565b60006080820190508181036000830152612cfa818a8c6127ec565b90508181036020830152612d0f81888a612857565b90508181036040830152612d248186886129a1565b90508181036060830152612d39818486612cb2565b90509998505050505050505050565b7f4e487b7100000000000000000000000000000000000000000000000000000000600052602160045260246000fd5b6000604082019050612d8c600083018561200a565b8181036020830152612d9e8184612ace565b90509392505050565b6000612db282612ab2565b612dbc818561273d565b9350612dcc818560208601611fa7565b80840191505092915050565b6000612de48284612da7565b915081905092915050565b600081519050612dfe81611728565b92915050565b600060208284031215612e1a57612e19611714565b5b6000612e2884828501612def565b91505092915050565b7f4e487b7100000000000000000000000000000000000000000000000000000000600052602260045260246000fd5b60006002820490506001821680612e7857607f821691505b602082108103612e8b57612e8a612e31565b5b50919050565b600060ff82169050919050565b612ea781612e91565b82525050565b6000608082019050612ec2600083018761200a565b612ecf6020830186612e9e565b612edc604083018561200a565b612ee9606083018461200a565b95945050505050565b600060a082019050612f07600083018861200a565b612f14602083018761200a565b612f21604083018661200a565b612f2e6060830185611879565b612f3b6080830184611e91565b969550505050505056fea2646970667358221220e5e6e47d9d82d822936be73c03780f5be093bd250a7c3bef12d0a99fd303a3f564736f6c63430008180033",
  "linkReferences": {},
  "deployedLinkReferences": {}
}