{
  "_format": "hh-sol-artifact-1",
  "contractName": "TestnetProtocolUpgradeHandler",
  "sourceName": "contracts/zk-gov/l1-contracts/src/TestnetProtocolUpgradeHandler.sol",
  "abi": [
    {
      "inputs": [
        {
          "internalType": "address",
          "name": "_securityCouncil",
          "type": "address"
        },
        {
          "internalType": "address",
          "name": "_guardians",
          "type": "address"
        },
        {
          "internalType": "address",
          "name": "_emergencyUpgradeBoard",
          "type": "address"
        },
        {
          "internalType": "address",
          "name": "_l2ProtocolGovernor",
          "type": "address"
        },
        {
          "internalType": "contract IZKsyncEra",
          "name": "_ZKsyncEra",
          "type": "address"
        },
        {
          "internalType": "contract IStateTransitionManager",
          "name": "_stateTransitionManager",
          "type": "address"
        },
        {
          "internalType": "contract IPausable",
          "name": "_bridgeHub",
          "type": "address"
        },
        {
          "internalType": "contract IPausable",
          "name": "_sharedBridge",
          "type": "address"
        }
      ],
      "stateMutability": "nonpayable",
      "type": "constructor"
    },
    {
      "anonymous": false,
      "inputs": [
        {
          "indexed": true,
          "internalType": "address",
          "name": "_emergencyUpgradeBoardBefore",
          "type": "address"
        },
        {
          "indexed": true,
          "internalType": "address",
          "name": "_emergencyUpgradeBoardAfter",
          "type": "address"
        }
      ],
      "name": "ChangeEmergencyUpgradeBoard",
      "type": "event"
    },
    {
      "anonymous": false,
      "inputs": [
        {
          "indexed": true,
          "internalType": "address",
          "name": "_guardiansBefore",
          "type": "address"
        },
        {
          "indexed": true,
          "internalType": "address",
          "name": "_guardiansAfter",
          "type": "address"
        }
      ],
      "name": "ChangeGuardians",
      "type": "event"
    },
    {
      "anonymous": false,
      "inputs": [
        {
          "indexed": true,
          "internalType": "address",
          "name": "_securityCouncilBefore",
          "type": "address"
        },
        {
          "indexed": true,
          "internalType": "address",
          "name": "_securityCouncilAfter",
          "type": "address"
        }
      ],
      "name": "ChangeSecurityCouncil",
      "type": "event"
    },
    {
      "anonymous": false,
      "inputs": [
        {
          "indexed": true,
          "internalType": "bytes32",
          "name": "_id",
          "type": "bytes32"
        }
      ],
      "name": "EmergencyUpgradeExecuted",
      "type": "event"
    },
    {
      "anonymous": false,
      "inputs": [
        {
          "indexed": false,
          "internalType": "uint256",
          "name": "_protocolFrozenUntil",
          "type": "uint256"
        }
      ],
      "name": "HardFreeze",
      "type": "event"
    },
    {
      "anonymous": false,
      "inputs": [],
      "name": "ReinforceFreeze",
      "type": "event"
    },
    {
      "anonymous": false,
      "inputs": [
        {
          "indexed": false,
          "internalType": "uint256",
          "name": "_chainId",
          "type": "uint256"
        }
      ],
      "name": "ReinforceFreezeOneChain",
      "type": "event"
    },
    {
      "anonymous": false,
      "inputs": [],
      "name": "ReinforceUnfreeze",
      "type": "event"
    },
    {
      "anonymous": false,
      "inputs": [
        {
          "indexed": false,
          "internalType": "uint256",
          "name": "_chainId",
          "type": "uint256"
        }
      ],
      "name": "ReinforceUnfreezeOneChain",
      "type": "event"
    },
    {
      "anonymous": false,
      "inputs": [
        {
          "indexed": false,
          "internalType": "uint256",
          "name": "_protocolFrozenUntil",
          "type": "uint256"
        }
      ],
      "name": "SoftFreeze",
      "type": "event"
    },
    {
      "anonymous": false,
      "inputs": [],
      "name": "Unfreeze",
      "type": "event"
    },
    {
      "anonymous": false,
      "inputs": [
        {
          "indexed": true,
          "internalType": "bytes32",
          "name": "_id",
          "type": "bytes32"
        }
      ],
      "name": "UpgradeApprovedByGuardians",
      "type": "event"
    },
    {
      "anonymous": false,
      "inputs": [
        {
          "indexed": true,
          "internalType": "bytes32",
          "name": "_id",
          "type": "bytes32"
        }
      ],
      "name": "UpgradeApprovedBySecurityCouncil",
      "type": "event"
    },
    {
      "anonymous": false,
      "inputs": [
        {
          "indexed": true,
          "internalType": "bytes32",
          "name": "_id",
          "type": "bytes32"
        }
      ],
      "name": "UpgradeExecuted",
      "type": "event"
    },
    {
      "anonymous": false,
      "inputs": [
        {
          "indexed": true,
          "internalType": "bytes32",
          "name": "_id",
          "type": "bytes32"
        }
      ],
      "name": "UpgradeLegalVetoExtended",
      "type": "event"
    },
    {
      "anonymous": false,
      "inputs": [
        {
          "indexed": true,
          "internalType": "bytes32",
          "name": "_id",
          "type": "bytes32"
        },
        {
          "components": [
            {
              "components": [
                {
                  "internalType": "address",
                  "name": "target",
                  "type": "address"
                },
                {
                  "internalType": "uint256",
                  "name": "value",
                  "type": "uint256"
                },
                {
                  "internalType": "bytes",
                  "name": "data",
                  "type": "bytes"
                }
              ],
              "internalType": "struct IProtocolUpgradeHandler.Call[]",
              "name": "calls",
              "type": "tuple[]"
            },
            {
              "internalType": "address",
              "name": "executor",
              "type": "address"
            },
            {
              "internalType": "bytes32",
              "name": "salt",
              "type": "bytes32"
            }
          ],
          "indexed": false,
          "internalType": "struct IProtocolUpgradeHandler.UpgradeProposal",
          "name": "_proposal",
          "type": "tuple"
        }
      ],
      "name": "UpgradeStarted",
      "type": "event"
    },
    {
      "inputs": [],
      "name": "BRIDGE_HUB",
      "outputs": [
        {
          "internalType": "contract IPausable",
          "name": "",
          "type": "address"
        }
      ],
      "stateMutability": "view",
      "type": "function"
    },
    {
      "inputs": [],
      "name": "L2_PROTOCOL_GOVERNOR",
      "outputs": [
        {
          "internalType": "address",
          "name": "",
          "type": "address"
        }
      ],
      "stateMutability": "view",
      "type": "function"
    },
    {
      "inputs": [],
      "name": "SHARED_BRIDGE",
      "outputs": [
        {
          "internalType": "contract IPausable",
          "name": "",
          "type": "address"
        }
      ],
      "stateMutability": "view",
      "type": "function"
    },
    {
      "inputs": [],
      "name": "STATE_TRANSITION_MANAGER",
      "outputs": [
        {
          "internalType": "contract IStateTransitionManager",
          "name": "",
          "type": "address"
        }
      ],
      "stateMutability": "view",
      "type": "function"
    },
    {
      "inputs": [],
      "name": "ZKSYNC_ERA",
      "outputs": [
        {
          "internalType": "contract IZKsyncEra",
          "name": "",
          "type": "address"
        }
      ],
      "stateMutability": "view",
      "type": "function"
    },
    {
      "inputs": [
        {
          "internalType": "bytes32",
          "name": "_id",
          "type": "bytes32"
        }
      ],
      "name": "approveUpgradeGuardians",
      "outputs": [],
      "stateMutability": "nonpayable",
      "type": "function"
    },
    {
      "inputs": [
        {
          "internalType": "bytes32",
          "name": "_id",
          "type": "bytes32"
        }
      ],
      "name": "approveUpgradeSecurityCouncil",
      "outputs": [],
      "stateMutability": "nonpayable",
      "type": "function"
    },
    {
      "inputs": [],
      "name": "emergencyUpgradeBoard",
      "outputs": [
        {
          "internalType": "address",
          "name": "",
          "type": "address"
        }
      ],
      "stateMutability": "view",
      "type": "function"
    },
    {
      "inputs": [
        {
          "components": [
            {
              "components": [
                {
                  "internalType": "address",
                  "name": "target",
                  "type": "address"
                },
                {
                  "internalType": "uint256",
                  "name": "value",
                  "type": "uint256"
                },
                {
                  "internalType": "bytes",
                  "name": "data",
                  "type": "bytes"
                }
              ],
              "internalType": "struct IProtocolUpgradeHandler.Call[]",
              "name": "calls",
              "type": "tuple[]"
            },
            {
              "internalType": "address",
              "name": "executor",
              "type": "address"
            },
            {
              "internalType": "bytes32",
              "name": "salt",
              "type": "bytes32"
            }
          ],
          "internalType": "struct IProtocolUpgradeHandler.UpgradeProposal",
          "name": "_proposal",
          "type": "tuple"
        }
      ],
      "name": "execute",
      "outputs": [],
      "stateMutability": "payable",
      "type": "function"
    },
    {
      "inputs": [
        {
          "components": [
            {
              "components": [
                {
                  "internalType": "address",
                  "name": "target",
                  "type": "address"
                },
                {
                  "internalType": "uint256",
                  "name": "value",
                  "type": "uint256"
                },
                {
                  "internalType": "bytes",
                  "name": "data",
                  "type": "bytes"
                }
              ],
              "internalType": "struct IProtocolUpgradeHandler.Call[]",
              "name": "calls",
              "type": "tuple[]"
            },
            {
              "internalType": "address",
              "name": "executor",
              "type": "address"
            },
            {
              "internalType": "bytes32",
              "name": "salt",
              "type": "bytes32"
            }
          ],
          "internalType": "struct IProtocolUpgradeHandler.UpgradeProposal",
          "name": "_proposal",
          "type": "tuple"
        }
      ],
      "name": "executeEmergencyUpgrade",
      "outputs": [],
      "stateMutability": "payable",
      "type": "function"
    },
    {
      "inputs": [
        {
          "internalType": "bytes32",
          "name": "_id",
          "type": "bytes32"
        }
      ],
      "name": "extendLegalVeto",
      "outputs": [],
      "stateMutability": "nonpayable",
      "type": "function"
    },
    {
      "inputs": [],
      "name": "guardians",
      "outputs": [
        {
          "internalType": "address",
          "name": "",
          "type": "address"
        }
      ],
      "stateMutability": "view",
      "type": "function"
    },
    {
      "inputs": [],
      "name": "hardFreeze",
      "outputs": [],
      "stateMutability": "nonpayable",
      "type": "function"
    },
    {
      "inputs": [],
      "name": "lastFreezeStatusInUpgradeCycle",
      "outputs": [
        {
          "internalType": "enum IProtocolUpgradeHandler.FreezeStatus",
          "name": "",
          "type": "uint8"
        }
      ],
      "stateMutability": "view",
      "type": "function"
    },
    {
      "inputs": [],
      "name": "protocolFrozenUntil",
      "outputs": [
        {
          "internalType": "uint256",
          "name": "",
          "type": "uint256"
        }
      ],
      "stateMutability": "view",
      "type": "function"
    },
    {
      "inputs": [],
      "name": "reinforceFreeze",
      "outputs": [],
      "stateMutability": "nonpayable",
      "type": "function"
    },
    {
      "inputs": [
        {
          "internalType": "uint256",
          "name": "_chainId",
          "type": "uint256"
        }
      ],
      "name": "reinforceFreezeOneChain",
      "outputs": [],
      "stateMutability": "nonpayable",
      "type": "function"
    },
    {
      "inputs": [],
      "name": "reinforceUnfreeze",
      "outputs": [],
      "stateMutability": "nonpayable",
      "type": "function"
    },
    {
      "inputs": [
        {
          "internalType": "uint256",
          "name": "_chainId",
          "type": "uint256"
        }
      ],
      "name": "reinforceUnfreezeOneChain",
      "outputs": [],
      "stateMutability": "nonpayable",
      "type": "function"
    },
    {
      "inputs": [],
      "name": "securityCouncil",
      "outputs": [
        {
          "internalType": "address",
          "name": "",
          "type": "address"
        }
      ],
      "stateMutability": "view",
      "type": "function"
    },
    {
      "inputs": [],
      "name": "softFreeze",
      "outputs": [],
      "stateMutability": "nonpayable",
      "type": "function"
    },
    {
      "inputs": [
        {
          "internalType": "uint256",
          "name": "_l2BatchNumber",
          "type": "uint256"
        },
        {
          "internalType": "uint256",
          "name": "_l2MessageIndex",
          "type": "uint256"
        },
        {
          "internalType": "uint16",
          "name": "_l2TxNumberInBatch",
          "type": "uint16"
        },
        {
          "internalType": "bytes32[]",
          "name": "_proof",
          "type": "bytes32[]"
        },
        {
          "components": [
            {
              "components": [
                {
                  "internalType": "address",
                  "name": "target",
                  "type": "address"
                },
                {
                  "internalType": "uint256",
                  "name": "value",
                  "type": "uint256"
                },
                {
                  "internalType": "bytes",
                  "name": "data",
                  "type": "bytes"
                }
              ],
              "internalType": "struct IProtocolUpgradeHandler.Call[]",
              "name": "calls",
              "type": "tuple[]"
            },
            {
              "internalType": "address",
              "name": "executor",
              "type": "address"
            },
            {
              "internalType": "bytes32",
              "name": "salt",
              "type": "bytes32"
            }
          ],
          "internalType": "struct IProtocolUpgradeHandler.UpgradeProposal",
          "name": "_proposal",
          "type": "tuple"
        }
      ],
      "name": "startUpgrade",
      "outputs": [],
      "stateMutability": "nonpayable",
      "type": "function"
    },
    {
      "inputs": [],
      "name": "unfreeze",
      "outputs": [],
      "stateMutability": "nonpayable",
      "type": "function"
    },
    {
      "inputs": [
        {
          "internalType": "address",
          "name": "_newEmergencyUpgradeBoard",
          "type": "address"
        }
      ],
      "name": "updateEmergencyUpgradeBoard",
      "outputs": [],
      "stateMutability": "nonpayable",
      "type": "function"
    },
    {
      "inputs": [
        {
          "internalType": "address",
          "name": "_newGuardians",
          "type": "address"
        }
      ],
      "name": "updateGuardians",
      "outputs": [],
      "stateMutability": "nonpayable",
      "type": "function"
    },
    {
      "inputs": [
        {
          "internalType": "address",
          "name": "_newSecurityCouncil",
          "type": "address"
        }
      ],
      "name": "updateSecurityCouncil",
      "outputs": [],
      "stateMutability": "nonpayable",
      "type": "function"
    },
    {
      "inputs": [
        {
          "internalType": "bytes32",
          "name": "_id",
          "type": "bytes32"
        }
      ],
      "name": "upgradeState",
      "outputs": [
        {
          "internalType": "enum IProtocolUpgradeHandler.UpgradeState",
          "name": "",
          "type": "uint8"
        }
      ],
      "stateMutability": "view",
      "type": "function"
    },
    {
      "inputs": [
        {
          "internalType": "bytes32",
          "name": "upgradeId",
          "type": "bytes32"
        }
      ],
      "name": "upgradeStatus",
      "outputs": [
        {
          "internalType": "uint48",
          "name": "creationTimestamp",
          "type": "uint48"
        },
        {
          "internalType": "uint48",
          "name": "securityCouncilApprovalTimestamp",
          "type": "uint48"
        },
        {
          "internalType": "bool",
          "name": "guardiansApproval",
          "type": "bool"
        },
        {
          "internalType": "bool",
          "name": "guardiansExtendedLegalVeto",
          "type": "bool"
        },
        {
          "internalType": "bool",
          "name": "executed",
          "type": "bool"
        }
      ],
      "stateMutability": "view",
      "type": "function"
    },
    {
      "stateMutability": "payable",
      "type": "receive"
    }
  ],
  "bytecode": "0x6101206040523480156200001257600080fd5b5060405162004aef38038062004aef833981810160405281019062000038919062000492565b878787878787878762093a80620000546200035460201b60201c565b11156200006657620000656200055b565b5b876000806101000a81548173ffffffffffffffffffffffffffffffffffffffff021916908373ffffffffffffffffffffffffffffffffffffffff1602179055508773ffffffffffffffffffffffffffffffffffffffff16600073ffffffffffffffffffffffffffffffffffffffff167fe55ac8ae7914efca1278b8ed4ae21728d06ad9f6e7637bb2c905aacf2a6f595160405160405180910390a386600160006101000a81548173ffffffffffffffffffffffffffffffffffffffff021916908373ffffffffffffffffffffffffffffffffffffffff1602179055508673ffffffffffffffffffffffffffffffffffffffff16600073ffffffffffffffffffffffffffffffffffffffff167ffbb8d9e9607c95042daed3ce66316805e80c575253e2b5a83eb10cb97ac23d8860405160405180910390a385600260006101000a81548173ffffffffffffffffffffffffffffffffffffffff021916908373ffffffffffffffffffffffffffffffffffffffff1602179055508573ffffffffffffffffffffffffffffffffffffffff16600073ffffffffffffffffffffffffffffffffffffffff167f892b24306024c8b484d205b00cd0b9b7ff3f38781a6ed6686c60ef2c59d7667060405160405180910390a38473ffffffffffffffffffffffffffffffffffffffff1660808173ffffffffffffffffffffffffffffffffffffffff16815250508373ffffffffffffffffffffffffffffffffffffffff1660a08173ffffffffffffffffffffffffffffffffffffffff16815250508273ffffffffffffffffffffffffffffffffffffffff1660c08173ffffffffffffffffffffffffffffffffffffffff16815250508173ffffffffffffffffffffffffffffffffffffffff1660e08173ffffffffffffffffffffffffffffffffffffffff16815250508073ffffffffffffffffffffffffffffffffffffffff166101008173ffffffffffffffffffffffffffffffffffffffff1681525050505050505050505050505050505050506200058a565b600090565b600080fd5b600073ffffffffffffffffffffffffffffffffffffffff82169050919050565b60006200038b826200035e565b9050919050565b6200039d816200037e565b8114620003a957600080fd5b50565b600081519050620003bd8162000392565b92915050565b6000620003d0826200037e565b9050919050565b620003e281620003c3565b8114620003ee57600080fd5b50565b6000815190506200040281620003d7565b92915050565b600062000415826200037e565b9050919050565b620004278162000408565b81146200043357600080fd5b50565b60008151905062000447816200041c565b92915050565b60006200045a826200037e565b9050919050565b6200046c816200044d565b81146200047857600080fd5b50565b6000815190506200048c8162000461565b92915050565b600080600080600080600080610100898b031215620004b657620004b562000359565b5b6000620004c68b828c01620003ac565b9850506020620004d98b828c01620003ac565b9750506040620004ec8b828c01620003ac565b9650506060620004ff8b828c01620003ac565b9550506080620005128b828c01620003f1565b94505060a0620005258b828c0162000436565b93505060c0620005388b828c016200047b565b92505060e06200054b8b828c016200047b565b9150509295985092959890939650565b7f4e487b7100000000000000000000000000000000000000000000000000000000600052600160045260246000fd5b60805160a05160c05160e051610100516144cc6200062360003960008181610cd20152818161248601526126d2015260008181610d1c0152818161240c01526126580152600081816106560152818161076b0152818161095a015281816122ba015281816123610152818161250601526125ad0152600081816115c60152612294015260008181610cae015261158201526144cc6000f3fe6080604052600436106101bb5760003560e01c806374f5d9d2116100ec578063c54dd6281161008a578063dbfe3e9611610064578063dbfe3e9614610555578063ea3e739b1461057e578063ec1507cb146105a7578063f12913d8146105e4576101c2565b8063c54dd628146104fc578063d370613214610513578063d6f7e8da1461053e576101c2565b80639c5392da116100c65780639c5392da1461044d578063a1dcb9b814610476578063b429f41c14610492578063b9d1f21a146104bb576101c2565b806374f5d9d2146103e45780637aedf3371461040d57806384a20db814610436576101c2565b80634523da36116101595780635a81d4ba116101335780635a81d4ba1461034e5780635d4edca714610379578063691616c5146103a45780636a28f000146103cd576101c2565b80634523da36146102dc5780634717bd36146102f8578063546b6d2a14610323576101c2565b806327eb6c0f1161019557806327eb6c0f146102465780633083f0c814610271578063314e6ebe1461029c578063407626b5146102b3576101c2565b80630855b2e1146101c757806308ee01eb146101f05780630ed505a21461021b576101c2565b366101c257005b600080fd5b3480156101d357600080fd5b506101ee60048036038101906101e9919061299b565b61060f565b005b3480156101fc57600080fd5b50610205610719565b6040516102129190612a09565b60405180910390f35b34801561022757600080fd5b5061023061073f565b60405161023d9190612a33565b60405180910390f35b34801561025257600080fd5b5061025b610745565b6040516102689190612a09565b60405180910390f35b34801561027d57600080fd5b50610286610769565b6040516102939190612aad565b60405180910390f35b3480156102a857600080fd5b506102b161078d565b005b3480156102bf57600080fd5b506102da60048036038101906102d5919061299b565b610913565b005b6102f660048036038101906102f19190612aec565b610a1d565b005b34801561030457600080fd5b5061030d610cac565b60405161031a9190612a09565b60405180910390f35b34801561032f57600080fd5b50610338610cd0565b6040516103459190612b56565b60405180910390f35b34801561035a57600080fd5b50610363610cf4565b6040516103709190612a09565b60405180910390f35b34801561038557600080fd5b5061038e610d1a565b60405161039b9190612b56565b60405180910390f35b3480156103b057600080fd5b506103cb60048036038101906103c69190612b9d565b610d3e565b005b3480156103d957600080fd5b506103e2610e6c565b005b3480156103f057600080fd5b5061040b60048036038101906104069190612c00565b611064565b005b34801561041957600080fd5b50610434600480360381019061042f9190612b9d565b61122c565b005b34801561044257600080fd5b5061044b61135a565b005b34801561045957600080fd5b50610474600480360381019061046f9190612ccc565b611545565b005b610490600480360381019061048b9190612aec565b611848565b005b34801561049e57600080fd5b506104b960048036038101906104b49190612c00565b611a90565b005b3480156104c757600080fd5b506104e260048036038101906104dd9190612c00565b611c58565b6040516104f3959493929190612dbe565b60405180910390f35b34801561050857600080fd5b50610511611cd9565b005b34801561051f57600080fd5b50610528611d54565b6040516105359190612e88565b60405180910390f35b34801561054a57600080fd5b50610553611d67565b005b34801561056157600080fd5b5061057c60048036038101906105779190612b9d565b611de2565b005b34801561058a57600080fd5b506105a560048036038101906105a09190612c00565b611f0d565b005b3480156105b357600080fd5b506105ce60048036038101906105c99190612c00565b612079565b6040516105db9190612eeb565b60405180910390f35b3480156105f057600080fd5b506105f9612292565b6040516106069190612f27565b60405180910390f35b600554421115610654576040517f08c379a000000000000000000000000000000000000000000000000000000000815260040161064b90612fc5565b60405180910390fd5b7f000000000000000000000000000000000000000000000000000000000000000073ffffffffffffffffffffffffffffffffffffffff1663accdd16c826040518263ffffffff1660e01b81526004016106ad9190612a33565b600060405180830381600087803b1580156106c757600080fd5b505af11580156106db573d6000803e3d6000fd5b505050507fe2b6c70f0bb14be8c1be3a3875d171dd198b1f9f2d35972501b91c0fc6c1b0ce8160405161070e9190612a33565b60405180910390a150565b600260009054906101000a900473ffffffffffffffffffffffffffffffffffffffff1681565b60055481565b60008054906101000a900473ffffffffffffffffffffffffffffffffffffffff1681565b7f000000000000000000000000000000000000000000000000000000000000000081565b60008054906101000a900473ffffffffffffffffffffffffffffffffffffffff1673ffffffffffffffffffffffffffffffffffffffff163373ffffffffffffffffffffffffffffffffffffffff161461081b576040517f08c379a000000000000000000000000000000000000000000000000000000000815260040161081290613057565b60405180910390fd5b6000600481111561082f5761082e612e11565b5b600460009054906101000a900460ff16600481111561085157610850612e11565b5b14610891576040517f08c379a0000000000000000000000000000000000000000000000000000000008152600401610888906130c3565b60405180910390fd5b6001600460006101000a81548160ff021916908360048111156108b7576108b6612e11565b5b021790555061a8c0426108ca9190613112565b6005819055506108d86122b6565b7f24f7761883b592e1cb80bcb0b5ad54822c7ed844019f3459111f131715d1ecc96005546040516109099190612a33565b60405180910390a1565b600060055414610958576040517f08c379a000000000000000000000000000000000000000000000000000000000815260040161094f906131b8565b60405180910390fd5b7f000000000000000000000000000000000000000000000000000000000000000073ffffffffffffffffffffffffffffffffffffffff166351d218f7826040518263ffffffff1660e01b81526004016109b19190612a33565b600060405180830381600087803b1580156109cb57600080fd5b505af11580156109df573d6000803e3d6000fd5b505050507fa938747b1cf8e014275de2758fc8d441002154a94bca459b291cbbbeb0c7c89d81604051610a129190612a33565b60405180910390a150565b600260009054906101000a900473ffffffffffffffffffffffffffffffffffffffff1673ffffffffffffffffffffffffffffffffffffffff163373ffffffffffffffffffffffffffffffffffffffff1614610aad576040517f08c379a0000000000000000000000000000000000000000000000000000000008152600401610aa49061324a565b60405180910390fd5b600081604051602001610ac091906135bb565b6040516020818303038152906040528051906020012090506000610ae382612079565b905060006006811115610af957610af8612e11565b5b816006811115610b0c57610b0b612e11565b5b14610b4c576040517f08c379a0000000000000000000000000000000000000000000000000000000008152600401610b4390613629565b60405180910390fd5b3373ffffffffffffffffffffffffffffffffffffffff16836020016020810190610b769190612b9d565b73ffffffffffffffffffffffffffffffffffffffff1614610bcc576040517f08c379a0000000000000000000000000000000000000000000000000000000008152600401610bc3906136bb565b60405180910390fd5b600160036000848152602001908152602001600020600001600e6101000a81548160ff0219169083151502179055506000600460006101000a81548160ff02191690836004811115610c2157610c20612e11565b5b02179055506000600581905550610c36612502565b610c4e838060000190610c4991906136ea565b61274e565b7f2f05ba71d0df11bf5fa562a6569d70c4f80da84284badbe015ce1456063d0ded60405160405180910390a1817f39f6aeadc0239b46b37917ee1c12e98f9cd3a5dea6c038efa22af67471128e5160405160405180910390a2505050565b7f000000000000000000000000000000000000000000000000000000000000000081565b7f000000000000000000000000000000000000000000000000000000000000000081565b600160009054906101000a900473ffffffffffffffffffffffffffffffffffffffff1681565b7f000000000000000000000000000000000000000000000000000000000000000081565b3073ffffffffffffffffffffffffffffffffffffffff163373ffffffffffffffffffffffffffffffffffffffff1614610dac576040517f08c379a0000000000000000000000000000000000000000000000000000000008152600401610da3906137e5565b60405180910390fd5b8073ffffffffffffffffffffffffffffffffffffffff16600160009054906101000a900473ffffffffffffffffffffffffffffffffffffffff1673ffffffffffffffffffffffffffffffffffffffff167ffbb8d9e9607c95042daed3ce66316805e80c575253e2b5a83eb10cb97ac23d8860405160405180910390a380600160006101000a81548173ffffffffffffffffffffffffffffffffffffffff021916908373ffffffffffffffffffffffffffffffffffffffff16021790555050565b60008054906101000a900473ffffffffffffffffffffffffffffffffffffffff1673ffffffffffffffffffffffffffffffffffffffff163373ffffffffffffffffffffffffffffffffffffffff161480610ed65750600060055414158015610ed5575060055442115b5b610f15576040517f08c379a0000000000000000000000000000000000000000000000000000000008152600401610f0c9061389d565b60405180910390fd5b60016004811115610f2957610f28612e11565b5b600460009054906101000a900460ff166004811115610f4b57610f4a612e11565b5b03610f80576003600460006101000a81548160ff02191690836004811115610f7657610f75612e11565b5b0217905550611026565b60026004811115610f9457610f93612e11565b5b600460009054906101000a900460ff166004811115610fb657610fb5612e11565b5b03610fea5760048060006101000a81548160ff02191690836004811115610fe057610fdf612e11565b5b0217905550611025565b6040517f08c379a000000000000000000000000000000000000000000000000000000000815260040161101c90613909565b60405180910390fd5b5b6000600581905550611036612502565b7f2f05ba71d0df11bf5fa562a6569d70c4f80da84284badbe015ce1456063d0ded60405160405180910390a1565b600160009054906101000a900473ffffffffffffffffffffffffffffffffffffffff1673ffffffffffffffffffffffffffffffffffffffff163373ffffffffffffffffffffffffffffffffffffffff16146110f4576040517f08c379a00000000000000000000000000000000000000000000000000000000081526004016110eb9061399b565b60405180910390fd5b60036000828152602001908152602001600020600001600c9054906101000a900460ff1615611158576040517f08c379a000000000000000000000000000000000000000000000000000000000815260040161114f90613a2d565b60405180910390fd5b600061116382612079565b90506002600681111561117957611178612e11565b5b81600681111561118c5761118b612e11565b5b146111cc576040517f08c379a00000000000000000000000000000000000000000000000000000000081526004016111c390613ae5565b60405180910390fd5b600160036000848152602001908152602001600020600001600c6101000a81548160ff021916908315150217905550817f4bdba07411d36daebbfc1a5062f25d0d02c753374c8498aec76d5954c707682a60405160405180910390a25050565b3073ffffffffffffffffffffffffffffffffffffffff163373ffffffffffffffffffffffffffffffffffffffff161461129a576040517f08c379a0000000000000000000000000000000000000000000000000000000008152600401611291906137e5565b60405180910390fd5b8073ffffffffffffffffffffffffffffffffffffffff16600260009054906101000a900473ffffffffffffffffffffffffffffffffffffffff1673ffffffffffffffffffffffffffffffffffffffff167f892b24306024c8b484d205b00cd0b9b7ff3f38781a6ed6686c60ef2c59d7667060405160405180910390a380600260006101000a81548173ffffffffffffffffffffffffffffffffffffffff021916908373ffffffffffffffffffffffffffffffffffffffff16021790555050565b60008054906101000a900473ffffffffffffffffffffffffffffffffffffffff1673ffffffffffffffffffffffffffffffffffffffff163373ffffffffffffffffffffffffffffffffffffffff16146113e8576040517f08c379a00000000000000000000000000000000000000000000000000000000081526004016113df90613057565b60405180910390fd5b6000600460009054906101000a900460ff169050600060048111156114105761140f612e11565b5b81600481111561142357611422612e11565b5b148061145357506001600481111561143e5761143d612e11565b5b81600481111561145157611450612e11565b5b145b8061148257506003600481111561146d5761146c612e11565b5b8160048111156114805761147f612e11565b5b145b6114c1576040517f08c379a00000000000000000000000000000000000000000000000000000000081526004016114b890613b51565b60405180910390fd5b6002600460006101000a81548160ff021916908360048111156114e7576114e6612e11565b5b021790555062093a80426114fb9190613112565b6005819055506115096122b6565b7f8cfb4dcbe7dce698c042e43e42e1e496194abadb41ac3756f5793a9c5a8bb3e860055460405161153a9190612a33565b60405180910390a150565b60008160405160200161155891906135bb565b6040516020818303038152906040529050600060405180606001604052808761ffff1681526020017f000000000000000000000000000000000000000000000000000000000000000073ffffffffffffffffffffffffffffffffffffffff16815260200183815250905060007f000000000000000000000000000000000000000000000000000000000000000073ffffffffffffffffffffffffffffffffffffffff1663e4948f438a8a858a8a6040518663ffffffff1660e01b8152600401611625959493929190613cb9565b602060405180830381865afa158015611642573d6000803e3d6000fd5b505050506040513d601f19601f820116820180604052508101906116669190613d3a565b9050806116a8576040517f08c379a000000000000000000000000000000000000000000000000000000000815260040161169f90613dd9565b60405180910390fd5b600260009054906101000a900473ffffffffffffffffffffffffffffffffffffffff1673ffffffffffffffffffffffffffffffffffffffff168460200160208101906116f49190612b9d565b73ffffffffffffffffffffffffffffffffffffffff160361174a576040517f08c379a000000000000000000000000000000000000000000000000000000000815260040161174190613e6b565b60405180910390fd5b600083805190602001209050600061176182612079565b90506000600681111561177757611776612e11565b5b81600681111561178a57611789612e11565b5b146117ca576040517f08c379a00000000000000000000000000000000000000000000000000000000081526004016117c190613efd565b60405180910390fd5b426003600084815260200190815260200160002060000160006101000a81548165ffffffffffff021916908365ffffffffffff160217905550817f71a79729ed8b7db17b27c5dfe0ae24cf41d52b08c8dfc82592fc7db23010c8798760405161183391906135bb565b60405180910390a25050505050505050505050565b60008160405160200161185b91906135bb565b604051602081830303815290604052805190602001209050600061187e82612079565b90506004600681111561189457611893612e11565b5b8160068111156118a7576118a6612e11565b5b146118e7576040517f08c379a00000000000000000000000000000000000000000000000000000000081526004016118de90613f69565b60405180910390fd5b600073ffffffffffffffffffffffffffffffffffffffff168360200160208101906119129190612b9d565b73ffffffffffffffffffffffffffffffffffffffff16148061197157503373ffffffffffffffffffffffffffffffffffffffff168360200160208101906119599190612b9d565b73ffffffffffffffffffffffffffffffffffffffff16145b6119b0576040517f08c379a00000000000000000000000000000000000000000000000000000000081526004016119a7906136bb565b60405180910390fd5b600160036000848152602001908152602001600020600001600e6101000a81548160ff0219169083151502179055506000600460006101000a81548160ff02191690836004811115611a0557611a04612e11565b5b02179055506000600581905550611a1a612502565b611a32838060000190611a2d91906136ea565b61274e565b7f2f05ba71d0df11bf5fa562a6569d70c4f80da84284badbe015ce1456063d0ded60405160405180910390a1817ff6224a998aea3de231cf75375faf8c3711379d54bb84c92ef9d9779dabd383a960405160405180910390a2505050565b600160009054906101000a900473ffffffffffffffffffffffffffffffffffffffff1673ffffffffffffffffffffffffffffffffffffffff163373ffffffffffffffffffffffffffffffffffffffff1614611b20576040517f08c379a0000000000000000000000000000000000000000000000000000000008152600401611b179061399b565b60405180910390fd5b60036000828152602001908152602001600020600001600d9054906101000a900460ff1615611b84576040517f08c379a0000000000000000000000000000000000000000000000000000000008152600401611b7b90613ffb565b60405180910390fd5b6000611b8f82612079565b905060016006811115611ba557611ba4612e11565b5b816006811115611bb857611bb7612e11565b5b14611bf8576040517f08c379a0000000000000000000000000000000000000000000000000000000008152600401611bef9061408d565b60405180910390fd5b600160036000848152602001908152602001600020600001600d6101000a81548160ff021916908315150217905550817f6679375a2761fa72f4163ccf9a92a514bfd3adff8eb1f2f17256f25834dc46ca60405160405180910390a25050565b60036020528060005260406000206000915090508060000160009054906101000a900465ffffffffffff16908060000160069054906101000a900465ffffffffffff169080600001600c9054906101000a900460ff169080600001600d9054906101000a900460ff169080600001600e9054906101000a900460ff16905085565b600060055414611d1e576040517f08c379a0000000000000000000000000000000000000000000000000000000008152600401611d15906131b8565b60405180910390fd5b611d26612502565b7fea592eda90ea1daf1d7577bddc51f4f8425ec0332f0dd8b58aa08f8a2d1da62160405160405180910390a1565b600460009054906101000a900460ff1681565b600554421115611dac576040517f08c379a0000000000000000000000000000000000000000000000000000000008152600401611da390612fc5565b60405180910390fd5b611db46122b6565b7fbe5088092f32032505342f55f3393029ab55bd4dfcc2edad138d715f485ace6e60405160405180910390a1565b3073ffffffffffffffffffffffffffffffffffffffff163373ffffffffffffffffffffffffffffffffffffffff1614611e50576040517f08c379a0000000000000000000000000000000000000000000000000000000008152600401611e47906137e5565b60405180910390fd5b8073ffffffffffffffffffffffffffffffffffffffff1660008054906101000a900473ffffffffffffffffffffffffffffffffffffffff1673ffffffffffffffffffffffffffffffffffffffff167fe55ac8ae7914efca1278b8ed4ae21728d06ad9f6e7637bb2c905aacf2a6f595160405160405180910390a3806000806101000a81548173ffffffffffffffffffffffffffffffffffffffff021916908373ffffffffffffffffffffffffffffffffffffffff16021790555050565b60008054906101000a900473ffffffffffffffffffffffffffffffffffffffff1673ffffffffffffffffffffffffffffffffffffffff163373ffffffffffffffffffffffffffffffffffffffff1614611f9b576040517f08c379a0000000000000000000000000000000000000000000000000000000008152600401611f9290613057565b60405180910390fd5b6000611fa682612079565b905060026006811115611fbc57611fbb612e11565b5b816006811115611fcf57611fce612e11565b5b1461200f576040517f08c379a000000000000000000000000000000000000000000000000000000000815260040161200690614145565b60405180910390fd5b426003600084815260200190815260200160002060000160066101000a81548165ffffffffffff021916908365ffffffffffff160217905550817f4ea0d7cd48461eaf68f428942cdfb19039bd43dc723fa8875c65bec57d911ac460405160405180910390a25050565b600080600360008481526020019081526020016000206040518060a00160405290816000820160009054906101000a900465ffffffffffff1665ffffffffffff1665ffffffffffff1681526020016000820160069054906101000a900465ffffffffffff1665ffffffffffff1665ffffffffffff16815260200160008201600c9054906101000a900460ff1615151515815260200160008201600d9054906101000a900460ff1615151515815260200160008201600e9054906101000a900460ff16151515158152505090506000816000015165ffffffffffff160361216357600091505061228d565b80608001511561217757600691505061228d565b6000816060015161218f5761218a61294c565b612194565b62093a805b905080826000015165ffffffffffff166121ae9190613112565b4210156121c05760019250505061228d565b6000826020015165ffffffffffff161461220f57600062015180836020015165ffffffffffff166121f19190613112565b905080421015612202576003612205565b60045b935050505061228d565b600062278d0082846000015165ffffffffffff1661222d9190613112565b6122379190613112565b9050804210612285578260400151612255576005935050505061228d565b600062015180826122669190613112565b90508042101561227757600361227a565b60045b94505050505061228d565b600293505050505b919050565b7f000000000000000000000000000000000000000000000000000000000000000081565b60007f000000000000000000000000000000000000000000000000000000000000000073ffffffffffffffffffffffffffffffffffffffff1663a75b496d6040518163ffffffff1660e01b8152600401600060405180830381865afa158015612323573d6000803e3d6000fd5b505050506040513d6000823e3d601f19601f8201168201806040525081019061234c91906142b8565b905060008151905060005b81811015612409577f000000000000000000000000000000000000000000000000000000000000000073ffffffffffffffffffffffffffffffffffffffff1663accdd16c8483815181106123ae576123ad614301565b5b60200260200101516040518263ffffffff1660e01b81526004016123d29190612a33565b600060405180830381600087803b1580156123ec57600080fd5b505af19250505080156123fd575060015b50806001019050612357565b507f000000000000000000000000000000000000000000000000000000000000000073ffffffffffffffffffffffffffffffffffffffff16638456cb596040518163ffffffff1660e01b8152600401600060405180830381600087803b15801561247257600080fd5b505af1925050508015612483575060015b507f000000000000000000000000000000000000000000000000000000000000000073ffffffffffffffffffffffffffffffffffffffff16638456cb596040518163ffffffff1660e01b8152600401600060405180830381600087803b1580156124ec57600080fd5b505af19250505080156124fd575060015b505050565b60007f000000000000000000000000000000000000000000000000000000000000000073ffffffffffffffffffffffffffffffffffffffff1663a75b496d6040518163ffffffff1660e01b8152600401600060405180830381865afa15801561256f573d6000803e3d6000fd5b505050506040513d6000823e3d601f19601f8201168201806040525081019061259891906142b8565b905060008151905060005b81811015612655577f000000000000000000000000000000000000000000000000000000000000000073ffffffffffffffffffffffffffffffffffffffff166351d218f78483815181106125fa576125f9614301565b5b60200260200101516040518263ffffffff1660e01b815260040161261e9190612a33565b600060405180830381600087803b15801561263857600080fd5b505af1925050508015612649575060015b508060010190506125a3565b507f000000000000000000000000000000000000000000000000000000000000000073ffffffffffffffffffffffffffffffffffffffff16633f4ba83a6040518163ffffffff1660e01b8152600401600060405180830381600087803b1580156126be57600080fd5b505af19250505080156126cf575060015b507f000000000000000000000000000000000000000000000000000000000000000073ffffffffffffffffffffffffffffffffffffffff16633f4ba83a6040518163ffffffff1660e01b8152600401600060405180830381600087803b15801561273857600080fd5b505af1925050508015612749575060015b505050565b60005b8282905081101561294757600083838381811061277157612770614301565b5b90506020028101906127839190614330565b80604001906127929190614358565b9050111561282b5760008383838181106127af576127ae614301565b5b90506020028101906127c19190614330565b60000160208101906127d39190612b9d565b73ffffffffffffffffffffffffffffffffffffffff163b1161282a576040517f08c379a00000000000000000000000000000000000000000000000000000000081526004016128219061442d565b60405180910390fd5b5b60008084848481811061284157612840614301565b5b90506020028101906128539190614330565b60000160208101906128659190612b9d565b73ffffffffffffffffffffffffffffffffffffffff1685858581811061288e5761288d614301565b5b90506020028101906128a09190614330565b602001358686868181106128b7576128b6614301565b5b90506020028101906128c99190614330565b80604001906128d89190614358565b6040516128e692919061447d565b60006040518083038185875af1925050503d8060008114612923576040519150601f19603f3d011682016040523d82523d6000602084013e612928565b606091505b50915091508161293a57805160208201fd5b5050806001019050612751565b505050565b600090565b6000604051905090565b600080fd5b600080fd5b6000819050919050565b61297881612965565b811461298357600080fd5b50565b6000813590506129958161296f565b92915050565b6000602082840312156129b1576129b061295b565b5b60006129bf84828501612986565b91505092915050565b600073ffffffffffffffffffffffffffffffffffffffff82169050919050565b60006129f3826129c8565b9050919050565b612a03816129e8565b82525050565b6000602082019050612a1e60008301846129fa565b92915050565b612a2d81612965565b82525050565b6000602082019050612a486000830184612a24565b92915050565b6000819050919050565b6000612a73612a6e612a69846129c8565b612a4e565b6129c8565b9050919050565b6000612a8582612a58565b9050919050565b6000612a9782612a7a565b9050919050565b612aa781612a8c565b82525050565b6000602082019050612ac26000830184612a9e565b92915050565b600080fd5b600060608284031215612ae357612ae2612ac8565b5b81905092915050565b600060208284031215612b0257612b0161295b565b5b600082013567ffffffffffffffff811115612b2057612b1f612960565b5b612b2c84828501612acd565b91505092915050565b6000612b4082612a7a565b9050919050565b612b5081612b35565b82525050565b6000602082019050612b6b6000830184612b47565b92915050565b612b7a816129e8565b8114612b8557600080fd5b50565b600081359050612b9781612b71565b92915050565b600060208284031215612bb357612bb261295b565b5b6000612bc184828501612b88565b91505092915050565b6000819050919050565b612bdd81612bca565b8114612be857600080fd5b50565b600081359050612bfa81612bd4565b92915050565b600060208284031215612c1657612c1561295b565b5b6000612c2484828501612beb565b91505092915050565b600061ffff82169050919050565b612c4481612c2d565b8114612c4f57600080fd5b50565b600081359050612c6181612c3b565b92915050565b600080fd5b600080fd5b600080fd5b60008083601f840112612c8c57612c8b612c67565b5b8235905067ffffffffffffffff811115612ca957612ca8612c6c565b5b602083019150836020820283011115612cc557612cc4612c71565b5b9250929050565b60008060008060008060a08789031215612ce957612ce861295b565b5b6000612cf789828a01612986565b9650506020612d0889828a01612986565b9550506040612d1989828a01612c52565b945050606087013567ffffffffffffffff811115612d3a57612d39612960565b5b612d4689828a01612c76565b9350935050608087013567ffffffffffffffff811115612d6957612d68612960565b5b612d7589828a01612acd565b9150509295509295509295565b600065ffffffffffff82169050919050565b612d9d81612d82565b82525050565b60008115159050919050565b612db881612da3565b82525050565b600060a082019050612dd36000830188612d94565b612de06020830187612d94565b612ded6040830186612daf565b612dfa6060830185612daf565b612e076080830184612daf565b9695505050505050565b7f4e487b7100000000000000000000000000000000000000000000000000000000600052602160045260246000fd5b60058110612e5157612e50612e11565b5b50565b6000819050612e6282612e40565b919050565b6000612e7282612e54565b9050919050565b612e8281612e67565b82525050565b6000602082019050612e9d6000830184612e79565b92915050565b60078110612eb457612eb3612e11565b5b50565b6000819050612ec582612ea3565b919050565b6000612ed582612eb7565b9050919050565b612ee581612eca565b82525050565b6000602082019050612f006000830184612edc565b92915050565b6000612f1182612a7a565b9050919050565b612f2181612f06565b82525050565b6000602082019050612f3c6000830184612f18565b92915050565b600082825260208201905092915050565b7f50726f746f636f6c2073686f756c6420626520616c72656164792066726f7a6560008201527f6e00000000000000000000000000000000000000000000000000000000000000602082015250565b6000612faf602183612f42565b9150612fba82612f53565b604082019050919050565b60006020820190508181036000830152612fde81612fa2565b9050919050565b7f4f6e6c7920536563757269747920436f756e63696c20697320616c6c6f77656460008201527f20746f2063616c6c20746869732066756e6374696f6e00000000000000000000602082015250565b6000613041603683612f42565b915061304c82612fe5565b604082019050919050565b6000602082019050818103600083015261307081613034565b9050919050565b7f50726f746f636f6c20616c72656164792066726f7a656e000000000000000000600082015250565b60006130ad601783612f42565b91506130b882613077565b602082019050919050565b600060208201905081810360008301526130dc816130a0565b9050919050565b7f4e487b7100000000000000000000000000000000000000000000000000000000600052601160045260246000fd5b600061311d82612965565b915061312883612965565b92508282019050808211156131405761313f6130e3565b5b92915050565b7f50726f746f636f6c2073686f756c6420626520616c726561647920756e66726f60008201527f7a656e0000000000000000000000000000000000000000000000000000000000602082015250565b60006131a2602383612f42565b91506131ad82613146565b604082019050919050565b600060208201905081810360008301526131d181613195565b9050919050565b7f4f6e6c7920456d657267656e6379205570677261646520426f6172642069732060008201527f616c6c6f77656420746f2063616c6c20746869732066756e6374696f6e000000602082015250565b6000613234603d83612f42565b915061323f826131d8565b604082019050919050565b6000602082019050818103600083015261326381613227565b9050919050565b600080fd5b600080fd5b600080fd5b6000808335600160200384360303811261329657613295613274565b5b83810192508235915060208301925067ffffffffffffffff8211156132be576132bd61326a565b5b6020820236038313156132d4576132d361326f565b5b509250929050565b600082825260208201905092915050565b6000819050919050565b60006133066020840184612b88565b905092915050565b613317816129e8565b82525050565b600061332c6020840184612986565b905092915050565b61333d81612965565b82525050565b600080833560016020038436030381126133605761335f613274565b5b83810192508235915060208301925067ffffffffffffffff8211156133885761338761326a565b5b60018202360383131561339e5761339d61326f565b5b509250929050565b600082825260208201905092915050565b82818337600083830152505050565b6000601f19601f8301169050919050565b60006133e383856133a6565b93506133f08385846133b7565b6133f9836133c6565b840190509392505050565b60006060830161341760008401846132f7565b613424600086018261330e565b50613432602084018461331d565b61343f6020860182613334565b5061344d6040840184613343565b85830360408701526134608382846133d7565b925050508091505092915050565b600061347a8383613404565b905092915050565b60008235600160600383360303811261349e5761349d613274565b5b82810191505092915050565b6000602082019050919050565b60006134c383856132dc565b9350836020840285016134d5846132ed565b8060005b878110156135195784840389526134f08284613482565b6134fa858261346e565b9450613505836134aa565b925060208a019950506001810190506134d9565b50829750879450505050509392505050565b600061353a6020840184612beb565b905092915050565b61354b81612bca565b82525050565b6000606083016135646000840184613279565b85830360008701526135778382846134b7565b9250505061358860208401846132f7565b613595602086018261330e565b506135a3604084018461352b565b6135b06040860182613542565b508091505092915050565b600060208201905081810360008301526135d58184613551565b905092915050565b7f5570677261646520616c72656164792065786973747300000000000000000000600082015250565b6000613613601683612f42565b915061361e826135dd565b602082019050919050565b6000602082019050818103600083015261364281613606565b9050919050565b7f6d73672e73656e646572206973206e6f7420617574686f72697a656420746f2060008201527f706572666f726d20746865207570677261646500000000000000000000000000602082015250565b60006136a5603383612f42565b91506136b082613649565b604082019050919050565b600060208201905081810360008301526136d481613698565b9050919050565b600080fd5b600080fd5b600080fd5b60008083356001602003843603038112613707576137066136db565b5b80840192508235915067ffffffffffffffff821115613729576137286136e0565b5b602083019250602082023603831315613745576137446136e5565b5b509250929050565b7f4f6e6c7920757067726164652068616e646c657220636f6e747261637420697460008201527f73656c6620697320616c6c6f77656420746f2063616c6c20746869732066756e60208201527f6374696f6e000000000000000000000000000000000000000000000000000000604082015250565b60006137cf604583612f42565b91506137da8261374d565b606082019050919050565b600060208201905081810360008301526137fe816137c2565b9050919050565b7f4f6e6c7920536563757269747920436f756e63696c20697320616c6c6f77656460008201527f20746f2063616c6c20746869732066756e6374696f6e206f722074686520707260208201527f6f746f636f6c2073686f756c642062652066726f7a656e000000000000000000604082015250565b6000613887605783612f42565b915061389282613805565b606082019050919050565b600060208201905081810360008301526138b68161387a565b9050919050565b7f556e6578706563746564206c61737420667265657a6520737461747573000000600082015250565b60006138f3601d83612f42565b91506138fe826138bd565b602082019050919050565b60006020820190508181036000830152613922816138e6565b9050919050565b7f4f6e6c7920677561726469616e7320697320616c6c6f77656420746f2063616c60008201527f6c20746869732066756e6374696f6e0000000000000000000000000000000000602082015250565b6000613985602f83612f42565b915061399082613929565b604082019050919050565b600060208201905081810360008301526139b481613978565b9050919050565b7f5570677261646520697320616c726561647920617070726f766564206279206760008201527f7561726469616e73000000000000000000000000000000000000000000000000602082015250565b6000613a17602883612f42565b9150613a22826139bb565b604082019050919050565b60006020820190508181036000830152613a4681613a0a565b9050919050565b7f5570677261646520776974682074686973206964206973206e6f74207761697460008201527f696e6720666f722074686520617070726f76616c2066726f6d2047756172646960208201527f616e730000000000000000000000000000000000000000000000000000000000604082015250565b6000613acf604383612f42565b9150613ada82613a4d565b606082019050919050565b60006020820190508181036000830152613afe81613ac2565b9050919050565b7f50726f746f636f6c2063616e277420626520686172642066726f7a656e000000600082015250565b6000613b3b601d83612f42565b9150613b4682613b05565b602082019050919050565b60006020820190508181036000830152613b6a81613b2e565b9050919050565b613b7a81612c2d565b82525050565b600081519050919050565b60005b83811015613ba9578082015181840152602081019050613b8e565b60008484015250505050565b6000613bc082613b80565b613bca81856133a6565b9350613bda818560208601613b8b565b613be3816133c6565b840191505092915050565b6000606083016000830151613c066000860182613b71565b506020830151613c19602086018261330e565b5060408301518482036040860152613c318282613bb5565b9150508091505092915050565b600082825260208201905092915050565b600080fd5b82818337505050565b6000613c698385613c3e565b93507f07ffffffffffffffffffffffffffffffffffffffffffffffffffffffffffffff831115613c9c57613c9b613c4f565b5b602083029250613cad838584613c54565b82840190509392505050565b6000608082019050613cce6000830188612a24565b613cdb6020830187612a24565b8181036040830152613ced8186613bee565b90508181036060830152613d02818486613c5d565b90509695505050505050565b613d1781612da3565b8114613d2257600080fd5b50565b600081519050613d3481613d0e565b92915050565b600060208284031215613d5057613d4f61295b565b5b6000613d5e84828501613d25565b91505092915050565b7f4661696c656420746f20636865636b20757067726164652070726f706f73616c60008201527f20696e6974696174696f6e000000000000000000000000000000000000000000602082015250565b6000613dc3602b83612f42565b9150613dce82613d67565b604082019050919050565b60006020820190508181036000830152613df281613db6565b9050919050565b7f456d657267656e6379205570677261646520426f6172642063616e277420657860008201527f656375746520757375616c207570677261646500000000000000000000000000602082015250565b6000613e55603383612f42565b9150613e6082613df9565b604082019050919050565b60006020820190508181036000830152613e8481613e48565b9050919050565b7f557067726164652077697468207468697320696420616c72656164792065786960008201527f7374730000000000000000000000000000000000000000000000000000000000602082015250565b6000613ee7602383612f42565b9150613ef282613e8b565b604082019050919050565b60006020820190508181036000830152613f1681613eda565b9050919050565b7f55706772616465206973206e6f74207965742072656164790000000000000000600082015250565b6000613f53601883612f42565b9150613f5e82613f1d565b602082019050919050565b60006020820190508181036000830152613f8281613f46565b9050919050565b7f4c6567616c207665746f20706572696f6420697320616c72656164792065787460008201527f656e646564000000000000000000000000000000000000000000000000000000602082015250565b6000613fe5602583612f42565b9150613ff082613f89565b604082019050919050565b6000602082019050818103600083015261401481613fd8565b9050919050565b7f5570677261646520776974682074686973206964206973206e6f7420696e207460008201527f6865206c6567616c207665746f20706572696f64000000000000000000000000602082015250565b6000614077603483612f42565b91506140828261401b565b604082019050919050565b600060208201905081810360008301526140a68161406a565b9050919050565b7f5570677261646520776974682074686973206964206973206e6f74207761697460008201527f696e6720666f722074686520617070726f76616c2066726f6d2053656375726960208201527f747920436f756e63696c00000000000000000000000000000000000000000000604082015250565b600061412f604a83612f42565b915061413a826140ad565b606082019050919050565b6000602082019050818103600083015261415e81614122565b9050919050565b7f4e487b7100000000000000000000000000000000000000000000000000000000600052604160045260246000fd5b61419d826133c6565b810181811067ffffffffffffffff821117156141bc576141bb614165565b5b80604052505050565b60006141cf612951565b90506141db8282614194565b919050565b600067ffffffffffffffff8211156141fb576141fa614165565b5b602082029050602081019050919050565b60008151905061421b8161296f565b92915050565b600061423461422f846141e0565b6141c5565b9050808382526020820190506020840283018581111561425757614256612c71565b5b835b81811015614280578061426c888261420c565b845260208401935050602081019050614259565b5050509392505050565b600082601f83011261429f5761429e612c67565b5b81516142af848260208601614221565b91505092915050565b6000602082840312156142ce576142cd61295b565b5b600082015167ffffffffffffffff8111156142ec576142eb612960565b5b6142f88482850161428a565b91505092915050565b7f4e487b7100000000000000000000000000000000000000000000000000000000600052603260045260246000fd5b60008235600160600383360303811261434c5761434b6136db565b5b80830191505092915050565b60008083356001602003843603038112614375576143746136db565b5b80840192508235915067ffffffffffffffff821115614397576143966136e0565b5b6020830192506001820236038313156143b3576143b26136e5565b5b509250929050565b7f546172676574206d757374206265206120736d61727420636f6e74726163742060008201527f6966207468652063616c6c64617461206973206e6f7420656d70747900000000602082015250565b6000614417603c83612f42565b9150614422826143bb565b604082019050919050565b600060208201905081810360008301526144468161440a565b9050919050565b600081905092915050565b6000614464838561444d565b93506144718385846133b7565b82840190509392505050565b600061448a828486614458565b9150819050939250505056fea2646970667358221220cd68361b8f2e1168c4fc13c9bdddf34387dbfa9cdca32d84907ba2de61f7017d64736f6c63430008180033",
  "linkReferences": {},
  "deployedLinkReferences": {}
}